{
  "contractName": "Darecoin",
  "abi": [
    {
      "constant": true,
      "inputs": [],
      "name": "getLastPrize",
      "outputs": [
        {
          "name": "",
          "type": "uint256"
        }
      ],
      "payable": false,
      "stateMutability": "view",
      "type": "function"
    },
    {
      "constant": true,
      "inputs": [],
      "name": "getCurrentCommits",
      "outputs": [
        {
          "name": "",
          "type": "uint256"
        }
      ],
      "payable": false,
      "stateMutability": "view",
      "type": "function"
    },
    {
      "constant": false,
      "inputs": [
        {
          "name": "new_max",
          "type": "uint256"
        }
      ],
      "name": "setMaxPlayers",
      "outputs": [],
      "payable": false,
      "stateMutability": "nonpayable",
      "type": "function"
    },
    {
      "constant": true,
      "inputs": [
        {
          "name": "",
          "type": "address"
        }
      ],
      "name": "gameData",
      "outputs": [
        {
          "name": "",
          "type": "string"
        }
      ],
      "payable": false,
      "stateMutability": "view",
      "type": "function"
    },
    {
      "constant": true,
      "inputs": [],
      "name": "getGameStageLength",
      "outputs": [
        {
          "name": "",
          "type": "uint256"
        }
      ],
      "payable": false,
      "stateMutability": "view",
      "type": "function"
    },
    {
      "constant": true,
      "inputs": [],
      "name": "getCurrentReveals",
      "outputs": [
        {
          "name": "",
          "type": "uint256"
        }
      ],
      "payable": false,
      "stateMutability": "view",
      "type": "function"
    },
    {
      "constant": false,
      "inputs": [],
      "name": "unpause",
      "outputs": [],
      "payable": false,
      "stateMutability": "nonpayable",
      "type": "function"
    },
    {
      "constant": true,
      "inputs": [],
      "name": "getGameStateInfo",
      "outputs": [
        {
          "name": "_state",
          "type": "uint256"
        },
        {
          "name": "_currNumberCommits",
          "type": "uint256"
        },
        {
          "name": "_currNumberReveals",
          "type": "uint256"
        },
        {
          "name": "_commitStageStartBlock",
          "type": "uint256"
        },
        {
          "name": "_revealStageStartBlock",
          "type": "uint256"
        },
        {
          "name": "_stageLength",
          "type": "uint256"
        }
      ],
      "payable": false,
      "stateMutability": "view",
      "type": "function"
    },
    {
      "constant": false,
      "inputs": [
        {
          "name": "guess",
          "type": "string"
        },
        {
          "name": "random",
          "type": "string"
        }
      ],
      "name": "reveal",
      "outputs": [],
      "payable": false,
      "stateMutability": "nonpayable",
      "type": "function"
    },
    {
      "constant": true,
      "inputs": [],
      "name": "getGameFee",
      "outputs": [
        {
          "name": "",
          "type": "uint256"
        }
      ],
      "payable": false,
      "stateMutability": "view",
      "type": "function"
    },
    {
      "constant": true,
      "inputs": [],
      "name": "paused",
      "outputs": [
        {
          "name": "",
          "type": "bool"
        }
      ],
      "payable": false,
      "stateMutability": "view",
      "type": "function"
    },
    {
      "constant": false,
      "inputs": [],
      "name": "payout",
      "outputs": [],
      "payable": false,
      "stateMutability": "nonpayable",
      "type": "function"
    },
    {
      "constant": true,
      "inputs": [
        {
          "name": "i",
          "type": "uint256"
        }
      ],
      "name": "getLastWinners",
      "outputs": [
        {
          "name": "",
          "type": "address"
        }
      ],
      "payable": false,
      "stateMutability": "view",
      "type": "function"
    },
    {
      "constant": true,
      "inputs": [],
      "name": "getCommitStageStartBlock",
      "outputs": [
        {
          "name": "",
          "type": "uint256"
        }
      ],
      "payable": false,
      "stateMutability": "view",
      "type": "function"
    },
    {
      "constant": false,
      "inputs": [],
      "name": "renounceOwnership",
      "outputs": [],
      "payable": false,
      "stateMutability": "nonpayable",
      "type": "function"
    },
    {
      "constant": false,
      "inputs": [],
      "name": "forceToPayoutState",
      "outputs": [],
      "payable": false,
      "stateMutability": "nonpayable",
      "type": "function"
    },
    {
      "constant": true,
      "inputs": [],
      "name": "getStakeSize",
      "outputs": [
        {
          "name": "",
          "type": "uint256"
        }
      ],
      "payable": false,
      "stateMutability": "view",
      "type": "function"
    },
    {
      "constant": true,
      "inputs": [
        {
          "name": "",
          "type": "address"
        }
      ],
      "name": "commits",
      "outputs": [
        {
          "name": "",
          "type": "bytes32"
        }
      ],
      "payable": false,
      "stateMutability": "view",
      "type": "function"
    },
    {
      "constant": false,
      "inputs": [],
      "name": "pause",
      "outputs": [],
      "payable": false,
      "stateMutability": "nonpayable",
      "type": "function"
    },
    {
      "constant": false,
      "inputs": [],
      "name": "forceToRevealState",
      "outputs": [],
      "payable": false,
      "stateMutability": "nonpayable",
      "type": "function"
    },
    {
      "constant": true,
      "inputs": [],
      "name": "getMaxPlayers",
      "outputs": [
        {
          "name": "",
          "type": "uint256"
        }
      ],
      "payable": false,
      "stateMutability": "view",
      "type": "function"
    },
    {
      "constant": true,
      "inputs": [],
      "name": "owner",
      "outputs": [
        {
          "name": "",
          "type": "address"
        }
      ],
      "payable": false,
      "stateMutability": "view",
      "type": "function"
    },
    {
      "constant": true,
      "inputs": [],
      "name": "getNumberOfWinners",
      "outputs": [
        {
          "name": "",
          "type": "uint256"
        }
      ],
      "payable": false,
      "stateMutability": "view",
      "type": "function"
    },
    {
      "constant": true,
      "inputs": [],
      "name": "getLastWinningGuess",
      "outputs": [
        {
          "name": "",
          "type": "string"
        }
      ],
      "payable": false,
      "stateMutability": "view",
      "type": "function"
    },
    {
      "constant": true,
      "inputs": [],
      "name": "getRevealStageStartBlock",
      "outputs": [
        {
          "name": "",
          "type": "uint256"
        }
      ],
      "payable": false,
      "stateMutability": "view",
      "type": "function"
    },
    {
      "constant": true,
      "inputs": [],
      "name": "getRound",
      "outputs": [
        {
          "name": "",
          "type": "uint256"
        }
      ],
      "payable": false,
      "stateMutability": "view",
      "type": "function"
    },
    {
      "constant": true,
      "inputs": [],
      "name": "getGameState",
      "outputs": [
        {
          "name": "",
          "type": "uint256"
        }
      ],
      "payable": false,
      "stateMutability": "view",
      "type": "function"
    },
    {
      "constant": false,
      "inputs": [],
      "name": "resetGame",
      "outputs": [],
      "payable": false,
      "stateMutability": "nonpayable",
      "type": "function"
    },
    {
      "constant": true,
      "inputs": [],
      "name": "birthBlock",
      "outputs": [
        {
          "name": "",
          "type": "uint256"
        }
      ],
      "payable": false,
      "stateMutability": "view",
      "type": "function"
    },
    {
      "constant": false,
      "inputs": [
        {
          "name": "newOwner",
          "type": "address"
        }
      ],
      "name": "transferOwnership",
      "outputs": [],
      "payable": false,
      "stateMutability": "nonpayable",
      "type": "function"
    },
    {
      "constant": false,
      "inputs": [
        {
          "name": "new_stake",
          "type": "uint256"
        }
      ],
      "name": "setStakeSize",
      "outputs": [],
      "payable": false,
      "stateMutability": "nonpayable",
      "type": "function"
    },
    {
      "inputs": [
        {
          "name": "_feeAddress",
          "type": "address"
        },
        {
          "name": "_gameFeePercent",
          "type": "uint256"
        },
        {
          "name": "_stakeSize",
          "type": "uint256"
        },
        {
          "name": "_maxp",
          "type": "uint256"
        },
        {
          "name": "_gameStageLength",
          "type": "uint256"
        },
        {
          "name": "_nptAddress",
          "type": "address"
        }
      ],
      "payable": false,
      "stateMutability": "nonpayable",
      "type": "constructor"
    },
    {
      "anonymous": false,
      "inputs": [],
      "name": "CommitsSubmitted",
      "type": "event"
    },
    {
      "anonymous": false,
      "inputs": [],
      "name": "RevealsSubmitted",
      "type": "event"
    },
    {
      "anonymous": false,
      "inputs": [],
      "name": "NewRoundStarted",
      "type": "event"
    },
    {
      "anonymous": false,
      "inputs": [],
      "name": "Pause",
      "type": "event"
    },
    {
      "anonymous": false,
      "inputs": [],
      "name": "Unpause",
      "type": "event"
    },
    {
      "anonymous": false,
      "inputs": [
        {
          "indexed": true,
          "name": "previousOwner",
          "type": "address"
        }
      ],
      "name": "OwnershipRenounced",
      "type": "event"
    },
    {
      "anonymous": false,
      "inputs": [
        {
          "indexed": true,
          "name": "previousOwner",
          "type": "address"
        },
        {
          "indexed": true,
          "name": "newOwner",
          "type": "address"
        }
      ],
      "name": "OwnershipTransferred",
      "type": "event"
    },
    {
      "constant": false,
      "inputs": [
        {
          "name": "hashedCommit",
          "type": "bytes32"
        }
      ],
      "name": "commit",
      "outputs": [],
      "payable": true,
      "stateMutability": "payable",
      "type": "function"
    }
  ],
  "bytecode": "0x608060405260008060146101000a81548160ff0219169083151502179055504360015573e39451e34f8fb108a8f6d4ca6c68dd38f37d26e3601a60006101000a81548173ffffffffffffffffffffffffffffffffffffffff021916908373ffffffffffffffffffffffffffffffffffffffff1602179055503480156200008457600080fd5b5060405160c08062002b7a833981018060405281019080805190602001909291908051906020019092919080519060200190929190805190602001909291908051906020019092919080519060200190929190505050858585858585336000806101000a81548173ffffffffffffffffffffffffffffffffffffffff021916908373ffffffffffffffffffffffffffffffffffffffff160217905550336000806101000a81548173ffffffffffffffffffffffffffffffffffffffff021916908373ffffffffffffffffffffffffffffffffffffffff16021790555081600260030181905550846002600101819055508260026004018190555083600280018190555085600260000160006101000a81548173ffffffffffffffffffffffffffffffffffffffff021916908373ffffffffffffffffffffffffffffffffffffffff16021790555080600260050160006101000a81548173ffffffffffffffffffffffffffffffffffffffff021916908373ffffffffffffffffffffffffffffffffffffffff1602179055506000600860000160006101000a81548160ff021916908360028111156200023257fe5b021790555060006008600201819055506000600860030181905550620002776002600301546000196200044b6401000000000262002410179091906401000000009004565b600860040181905550620002aa6002600301546000196200044b6401000000000262002410179091906401000000009004565b6008600501819055506000600f6003018190555082604051908082528060200260200182016040528015620002ee5781602001602082028038833980820191505090505b50601490805190602001906200030692919062000465565b5082604051908082528060200260200182016040528015620003375781602001602082028038833980820191505090505b50601690805190602001906200034f92919062000465565b5082604051908082528060200260200182016040528015620003805781602001602082028038833980820191505090505b50600f60000190805190602001906200039b92919062000465565b506020604051908101604052806000815250600f6002019080519060200190620003c7929190620004f4565b506000600f60010181905550600260050160009054906101000a900473ffffffffffffffffffffffffffffffffffffffff16601760006101000a81548173ffffffffffffffffffffffffffffffffffffffff021916908373ffffffffffffffffffffffffffffffffffffffff160217905550505050505050505050505050620005e9565b60008282111515156200045a57fe5b818303905092915050565b828054828255906000526020600020908101928215620004e1579160200282015b82811115620004e05782518260006101000a81548173ffffffffffffffffffffffffffffffffffffffff021916908373ffffffffffffffffffffffffffffffffffffffff1602179055509160200191906001019062000486565b5b509050620004f091906200057b565b5090565b828054600181600116156101000203166002900490600052602060002090601f016020900481019282601f106200053757805160ff191683800117855562000568565b8280016001018555821562000568579182015b82811115620005675782518255916020019190600101906200054a565b5b509050620005779190620005c1565b5090565b620005be91905b80821115620005ba57600081816101000a81549073ffffffffffffffffffffffffffffffffffffffff02191690555060010162000582565b5090565b90565b620005e691905b80821115620005e2576000816000905550600101620005c8565b5090565b90565b61258180620005f96000396000f300608060405260043610610196576000357c0100000000000000000000000000000000000000000000000000000000900463ffffffff1680630cfa61311461019b5780630d7099ea146101c6578063288dee3b146101f157806329bb80a01461021e578063349570d5146102da5780633e62aa72146103055780633f4ba83a146103305780635086f330146103475780635ba1b2c7146103955780635bba88f1146104445780635c975abb1461046f57806363bd1d4a1461049e5780636764f6fb146104b55780636cb9a39014610522578063715018a61461054d578063760704c11461056457806376cc4b7e1461057b5780637b43a8e6146105a65780638456cb591461060557806386b2b9861461061c5780638cbd9eb8146106335780638da5cb5b1461065e5780638e33cffc146106b55780639319c556146106e05780639ebefb68146107705780639f8743f71461079b578063b7d0628b146107c6578063bb472219146107f1578063bba4b31e14610808578063f14fcbc814610833578063f2fde38b14610857578063f3b9204e1461089a575b600080fd5b3480156101a757600080fd5b506101b06108c7565b6040518082815260200191505060405180910390f35b3480156101d257600080fd5b506101db6108d4565b6040518082815260200191505060405180910390f35b3480156101fd57600080fd5b5061021c600480360381019080803590602001909291905050506108e1565b005b34801561022a57600080fd5b5061025f600480360381019080803573ffffffffffffffffffffffffffffffffffffffff169060200190929190505050610949565b6040518080602001828103825283818151815260200191508051906020019080838360005b8381101561029f578082015181840152602081019050610284565b50505050905090810190601f1680156102cc5780820380516001836020036101000a031916815260200191505b509250505060405180910390f35b3480156102e657600080fd5b506102ef6109f9565b6040518082815260200191505060405180910390f35b34801561031157600080fd5b5061031a610a06565b6040518082815260200191505060405180910390f35b34801561033c57600080fd5b50610345610a13565b005b34801561035357600080fd5b5061035c610ad1565b60405180878152602001868152602001858152602001848152602001838152602001828152602001965050505050505060405180910390f35b3480156103a157600080fd5b50610442600480360381019080803590602001908201803590602001908080601f0160208091040260200160405190810160405280939291908181526020018383808284378201915050505050509192919290803590602001908201803590602001908080601f0160208091040260200160405190810160405280939291908181526020018383808284378201915050505050509192919290505050610b12565b005b34801561045057600080fd5b50610459610e1b565b6040518082815260200191505060405180910390f35b34801561047b57600080fd5b50610484610e28565b604051808215151515815260200191505060405180910390f35b3480156104aa57600080fd5b506104b3610e3b565b005b3480156104c157600080fd5b506104e060048036038101908080359060200190929190505050610efa565b604051808273ffffffffffffffffffffffffffffffffffffffff1673ffffffffffffffffffffffffffffffffffffffff16815260200191505060405180910390f35b34801561052e57600080fd5b50610537610f53565b6040518082815260200191505060405180910390f35b34801561055957600080fd5b50610562610f60565b005b34801561057057600080fd5b50610579611062565b005b34801561058757600080fd5b50610590611135565b6040518082815260200191505060405180910390f35b3480156105b257600080fd5b506105e7600480360381019080803573ffffffffffffffffffffffffffffffffffffffff169060200190929190505050611141565b60405180826000191660001916815260200191505060405180910390f35b34801561061157600080fd5b5061061a611159565b005b34801561062857600080fd5b50610631611219565b005b34801561063f57600080fd5b506106486112ec565b6040518082815260200191505060405180910390f35b34801561066a57600080fd5b506106736112f9565b604051808273ffffffffffffffffffffffffffffffffffffffff1673ffffffffffffffffffffffffffffffffffffffff16815260200191505060405180910390f35b3480156106c157600080fd5b506106ca61131e565b6040518082815260200191505060405180910390f35b3480156106ec57600080fd5b506106f561132b565b6040518080602001828103825283818151815260200191508051906020019080838360005b8381101561073557808201518184015260208101905061071a565b50505050905090810190601f1680156107625780820380516001836020036101000a031916815260200191505b509250505060405180910390f35b34801561077c57600080fd5b506107856113d0565b6040518082815260200191505060405180910390f35b3480156107a757600080fd5b506107b06113dd565b6040518082815260200191505060405180910390f35b3480156107d257600080fd5b506107db6113ea565b6040518082815260200191505060405180910390f35b3480156107fd57600080fd5b506108066113f7565b005b34801561081457600080fd5b5061081d6114fa565b6040518082815260200191505060405180910390f35b6108556004803603810190808035600019169060200190929190505050611500565b005b34801561086357600080fd5b50610898600480360381019080803573ffffffffffffffffffffffffffffffffffffffff169060200190929190505050611609565b005b3480156108a657600080fd5b506108c56004803603810190808035906020019092919050505061175e565b005b6000600f60030154905090565b6000600860020154905090565b6000809054906101000a900473ffffffffffffffffffffffffffffffffffffffff1673ffffffffffffffffffffffffffffffffffffffff163373ffffffffffffffffffffffffffffffffffffffff1614151561093c57600080fd5b8060026004018190555050565b60156020528060005260406000206000915090508054600181600116156101000203166002900480601f0160208091040260200160405190810160405280929190818152602001828054600181600116156101000203166002900480156109f15780601f106109c6576101008083540402835291602001916109f1565b820191906000526020600020905b8154815290600101906020018083116109d457829003601f168201915b505050505081565b6000600260030154905090565b6000600860030154905090565b6000809054906101000a900473ffffffffffffffffffffffffffffffffffffffff1673ffffffffffffffffffffffffffffffffffffffff163373ffffffffffffffffffffffffffffffffffffffff16141515610a6e57600080fd5b600060149054906101000a900460ff161515610a8957600080fd5b60008060146101000a81548160ff0219169083151502179055507f7805862f689e2f13df9f062ff482ad3ad112aca9e0847911ed832e158c525b3360405160405180910390a1565b600080600080600080600860010154600860020154600860030154600860040154600860050154600260030154955095509550955095509550909192939495565b600060149054906101000a900460ff16151515610b2e57600080fd5b60016002811115610b3b57fe5b600860000160009054906101000a900460ff166002811115610b5957fe5b141515610b6557600080fd5b610b6e826117c5565b81816040516020018083805190602001908083835b602083101515610ba85780518252602082019150602081019050602083039250610b83565b6001836020036101000a03801982511681845116808217855250505050505090500182805190602001908083835b602083101515610bfb5780518252602082019150602081019050602083039250610bd6565b6001836020036101000a038019825116818451168082178552505050505050905001925050506040516020818303038152906040526040518082805190602001908083835b602083101515610c655780518252602082019150602081019050602083039250610c40565b6001836020036101000a038019825116818451168082178552505050505050905001915050604051809103902060001916601360003373ffffffffffffffffffffffffffffffffffffffff1673ffffffffffffffffffffffffffffffffffffffff1681526020019081526020016000205460001916141515610ce657600080fd5b601360003373ffffffffffffffffffffffffffffffffffffffff1673ffffffffffffffffffffffffffffffffffffffff1681526020019081526020016000206000905581601560003373ffffffffffffffffffffffffffffffffffffffff1673ffffffffffffffffffffffffffffffffffffffff1681526020019081526020016000209080519060200190610d7c929190612429565b50336016600860030154815481101515610d9257fe5b9060005260206000200160006101000a81548173ffffffffffffffffffffffffffffffffffffffff021916908373ffffffffffffffffffffffffffffffffffffffff160217905550610df3600160086003015461180590919063ffffffff16565b6008600301819055506002600401546008600301541415610e1757610e16611821565b5b5050565b6000600260010154905090565b600060149054906101000a900460ff1681565b6000809054906101000a900473ffffffffffffffffffffffffffffffffffffffff1673ffffffffffffffffffffffffffffffffffffffff163373ffffffffffffffffffffffffffffffffffffffff16141515610e9657600080fd5b600060149054906101000a900460ff16151515610eb257600080fd5b600280811115610ebe57fe5b600860000160009054906101000a900460ff166002811115610edc57fe5b141515610ee857600080fd5b610ef0611881565b610ef8611bd9565b565b6000600f6001015482101515610f0f57600080fd5b600f60000182815481101515610f2157fe5b9060005260206000200160009054906101000a900473ffffffffffffffffffffffffffffffffffffffff169050919050565b6000600860040154905090565b6000809054906101000a900473ffffffffffffffffffffffffffffffffffffffff1673ffffffffffffffffffffffffffffffffffffffff163373ffffffffffffffffffffffffffffffffffffffff16141515610fbb57600080fd5b6000809054906101000a900473ffffffffffffffffffffffffffffffffffffffff1673ffffffffffffffffffffffffffffffffffffffff167ff8df31144d9c2f0f6b59d69b8b98abd5459d07f2742c4df920b25aae33c6482060405160405180910390a260008060006101000a81548173ffffffffffffffffffffffffffffffffffffffff021916908373ffffffffffffffffffffffffffffffffffffffff160217905550565b6000809054906101000a900473ffffffffffffffffffffffffffffffffffffffff1673ffffffffffffffffffffffffffffffffffffffff163373ffffffffffffffffffffffffffffffffffffffff161415156110bd57600080fd5b600060149054906101000a900460ff161515156110d957600080fd5b600160028111156110e657fe5b600860000160009054906101000a900460ff16600281111561110457fe5b14151561111057600080fd5b43600260030154600860050154011115151561112b57600080fd5b611133611821565b565b60006002800154905090565b60136020528060005260406000206000915090505481565b6000809054906101000a900473ffffffffffffffffffffffffffffffffffffffff1673ffffffffffffffffffffffffffffffffffffffff163373ffffffffffffffffffffffffffffffffffffffff161415156111b457600080fd5b600060149054906101000a900460ff161515156111d057600080fd5b6001600060146101000a81548160ff0219169083151502179055507f6985a02210a168e66602d3235cb6db0e70f92b3ba4d376a33c0f3d9434bff62560405160405180910390a1565b6000809054906101000a900473ffffffffffffffffffffffffffffffffffffffff1673ffffffffffffffffffffffffffffffffffffffff163373ffffffffffffffffffffffffffffffffffffffff1614151561127457600080fd5b600060149054906101000a900460ff1615151561129057600080fd5b6000600281111561129d57fe5b600860000160009054906101000a900460ff1660028111156112bb57fe5b1415156112c757600080fd5b4360026003015460086004015401111515156112e257600080fd5b6112ea611d47565b565b6000600260040154905090565b6000809054906101000a900473ffffffffffffffffffffffffffffffffffffffff1681565b6000600f60010154905090565b6060600f6002018054600181600116156101000203166002900480601f0160208091040260200160405190810160405280929190818152602001828054600181600116156101000203166002900480156113c65780601f1061139b576101008083540402835291602001916113c6565b820191906000526020600020905b8154815290600101906020018083116113a957829003601f168201915b5050505050905090565b6000600860050154905090565b6000600860060154905090565b6000600860010154905090565b60008060009054906101000a900473ffffffffffffffffffffffffffffffffffffffff1673ffffffffffffffffffffffffffffffffffffffff163373ffffffffffffffffffffffffffffffffffffffff1614151561145457600080fd5b600060149054906101000a900460ff1615151561147057600080fd5b611478611bd9565b6000600f60030181905550600090505b600f600101548110156114e157600f600001818154811015156114a757fe5b9060005260206000200160006101000a81549073ffffffffffffffffffffffffffffffffffffffff02191690558080600101915050611488565b6000600f60010181905550600060086006018190555050565b60015481565b600060149054906101000a900460ff1615151561151c57600080fd5b600060086002015414156115fd57601a60009054906101000a900473ffffffffffffffffffffffffffffffffffffffff1673ffffffffffffffffffffffffffffffffffffffff166357de26a46040518163ffffffff167c0100000000000000000000000000000000000000000000000000000000028152600401602060405180830381600087803b1580156115b057600080fd5b505af11580156115c4573d6000803e3d6000fd5b505050506040513d60208110156115da57600080fd5b810190808051906020019092919050505060188160001916905550436019819055505b61160681611db1565b50565b6000809054906101000a900473ffffffffffffffffffffffffffffffffffffffff1673ffffffffffffffffffffffffffffffffffffffff163373ffffffffffffffffffffffffffffffffffffffff1614151561166457600080fd5b600073ffffffffffffffffffffffffffffffffffffffff168173ffffffffffffffffffffffffffffffffffffffff16141515156116a057600080fd5b8073ffffffffffffffffffffffffffffffffffffffff166000809054906101000a900473ffffffffffffffffffffffffffffffffffffffff1673ffffffffffffffffffffffffffffffffffffffff167f8be0079c531659141344cd1fd0a4f28419497f9722a3daafe3b4186f6b6457e060405160405180910390a3806000806101000a81548173ffffffffffffffffffffffffffffffffffffffff021916908373ffffffffffffffffffffffffffffffffffffffff16021790555050565b6000809054906101000a900473ffffffffffffffffffffffffffffffffffffffff1673ffffffffffffffffffffffffffffffffffffffff163373ffffffffffffffffffffffffffffffffffffffff161415156117b957600080fd5b80600280018190555050565b60006117d08261206f565b9050600060018111156117df57fe5b8114806117f657506001808111156117f357fe5b81145b151561180157600080fd5b5050565b6000818301905082811015151561181857fe5b80905092915050565b6002600860000160006101000a81548160ff0219169083600281111561184357fe5b021790555060026008600101819055507f249eb5abee408afd11bfd7a0449ece5a765def88489dd844882a500f87280a2460405160405180910390a1565b60606000806000806000806002600401546040519080825280602002602001820160405280156118c05781602001602082028038833980820191505090505b509650601a60009054906101000a900473ffffffffffffffffffffffffffffffffffffffff1673ffffffffffffffffffffffffffffffffffffffff166357de26a46040518163ffffffff167c0100000000000000000000000000000000000000000000000000000000028152600401602060405180830381600087803b15801561194957600080fd5b505af115801561195d573d6000803e3d6000fd5b505050506040513d602081101561197357600080fd5b8101908080519060200190929190505050955060f060195401431115611bd057601854600019168660001916116119b657600060018111156119b157fe5b6119c3565b6001808111156119c257fe5b5b9450600093505b600860030154841015611b985760009250611af4601560006016878154811015156119f157fe5b9060005260206000200160009054906101000a900473ffffffffffffffffffffffffffffffffffffffff1673ffffffffffffffffffffffffffffffffffffffff1673ffffffffffffffffffffffffffffffffffffffff1681526020019081526020016000208054600181600116156101000203166002900480601f016020809104026020016040519081016040528092919081815260200182805460018160011615610100020316600290048015611aea5780601f10611abf57610100808354040283529160200191611aea565b820191906000526020600020905b815481529060010190602001808311611acd57829003601f168201915b505050505061206f565b915084821415611b8b57601684815481101515611b0d57fe5b9060005260206000200160009054906101000a900473ffffffffffffffffffffffffffffffffffffffff168784815181101515611b4657fe5b9060200190602002019073ffffffffffffffffffffffffffffffffffffffff16908173ffffffffffffffffffffffffffffffffffffffff168152505082806001019350505b83806001019450506119ca565b611bc2833073ffffffffffffffffffffffffffffffffffffffff163161227990919063ffffffff16565b9050611bcf87848361228f565b5b50505050505050565b600080600860000160006101000a81548160ff02191690836002811115611bfc57fe5b02179055506000600860010181905550600860060160008154809291906001019190505550600090505b600860020154811015611cbc5760136000601483815481101515611c4657fe5b9060005260206000200160009054906101000a900473ffffffffffffffffffffffffffffffffffffffff1673ffffffffffffffffffffffffffffffffffffffff1673ffffffffffffffffffffffffffffffffffffffff168152602001908152602001600020600090558080600101915050611c26565b60006008600201819055506000600860030181905550611cec60026003015460001961241090919063ffffffff16565b600860040181905550611d0f60026003015460001961241090919063ffffffff16565b6008600501819055507fc80d42c5999c8ad689a434b47a3eecdc54fa3b27a31b49cb02b8c5075929fecc60405160405180910390a150565b6001600860000160006101000a81548160ff02191690836002811115611d6957fe5b02179055506001600860010181905550436008600501819055507f69c81b49bf12351dbabf91faefefa2b2ee324d944cd6a8b3b8416ade0232666460405160405180910390a1565b600060149054906101000a900460ff16151515611dcd57600080fd5b60006002811115611dda57fe5b600860000160009054906101000a900460ff166002811115611df857fe5b141515611e0457600080fd5b600280015434141515611e1657600080fd5b600060010260001916601360003373ffffffffffffffffffffffffffffffffffffffff1673ffffffffffffffffffffffffffffffffffffffff1681526020019081526020016000205460001916141515611e6f57600080fd5b80601360003373ffffffffffffffffffffffffffffffffffffffff1673ffffffffffffffffffffffffffffffffffffffff1681526020019081526020016000208160001916905550336014600860020154815481101515611ecc57fe5b9060005260206000200160006101000a81548173ffffffffffffffffffffffffffffffffffffffff021916908373ffffffffffffffffffffffffffffffffffffffff160217905550611f2d600160086002015461180590919063ffffffff16565b600860020181905550601760009054906101000a900473ffffffffffffffffffffffffffffffffffffffff1673ffffffffffffffffffffffffffffffffffffffff166340c10f1933600a6040518363ffffffff167c0100000000000000000000000000000000000000000000000000000000028152600401808373ffffffffffffffffffffffffffffffffffffffff1673ffffffffffffffffffffffffffffffffffffffff16815260200182815260200192505050602060405180830381600087803b158015611ffc57600080fd5b505af1158015612010573d6000803e3d6000fd5b505050506040513d602081101561202657600080fd5b8101908080519060200190929190505050506001600860020154141561205157436008600401819055505b600260040154600860020154141561206c5761206b611d47565b5b50565b6000606060008084925060009150600090505b825181101561226e5760307f01000000000000000000000000000000000000000000000000000000000000000283828151811015156120bd57fe5b9060200101517f010000000000000000000000000000000000000000000000000000000000000090047f0100000000000000000000000000000000000000000000000000000000000000027effffffffffffffffffffffffffffffffffffffffffffffffffffffffffffff1916101580156121d5575060397f010000000000000000000000000000000000000000000000000000000000000002838281518110151561216557fe5b9060200101517f010000000000000000000000000000000000000000000000000000000000000090047f0100000000000000000000000000000000000000000000000000000000000000027effffffffffffffffffffffffffffffffffffffffffffffffffffffffffffff191611155b1561226157603083828151811015156121ea57fe5b9060200101517f010000000000000000000000000000000000000000000000000000000000000090047f0100000000000000000000000000000000000000000000000000000000000000027f0100000000000000000000000000000000000000000000000000000000000000900403600a83020191505b8080600101915050612082565b819350505050919050565b6000818381151561228657fe5b04905092915050565b600082600f60010181905550600090505b828110156124005783818151811015156122b657fe5b9060200190602002015173ffffffffffffffffffffffffffffffffffffffff166108fc839081150290604051600060405180830381858888f19350505050158015612305573d6000803e3d6000fd5b50838181518110151561231457fe5b90602001906020020151600f6000018281548110151561233057fe5b9060005260206000200160006101000a81548173ffffffffffffffffffffffffffffffffffffffff021916908373ffffffffffffffffffffffffffffffffffffffff16021790555060156000858381518110151561238a57fe5b9060200190602002015173ffffffffffffffffffffffffffffffffffffffff1673ffffffffffffffffffffffffffffffffffffffff168152602001908152602001600020600f60020190805460018160011615610100020316600290046123f29291906124a9565b5080806001019150506122a0565b81600f6003018190555050505050565b600082821115151561241e57fe5b818303905092915050565b828054600181600116156101000203166002900490600052602060002090601f016020900481019282601f1061246a57805160ff1916838001178555612498565b82800160010185558215612498579182015b8281111561249757825182559160200191906001019061247c565b5b5090506124a59190612530565b5090565b828054600181600116156101000203166002900490600052602060002090601f016020900481019282601f106124e2578054855561251f565b8280016001018555821561251f57600052602060002091601f016020900482015b8281111561251e578254825591600101919060010190612503565b5b50905061252c9190612530565b5090565b61255291905b8082111561254e576000816000905550600101612536565b5090565b905600a165627a7a72305820a51fb6c1c73171341eda7c4f81a506994c068f7f98c3a593418e82d807cb3c7c0029",
  "source": "pragma solidity ^0.4.23;\n\nimport \"./Game.sol\";\n\n  contract MakerDAO {\n    function peek() external view returns(bytes32, bool);\n  function read() external view returns(bytes32);\n}\n\n  contract Darecoin is Game {\n\n    enum gamePlay {DOWN, UP} // DOWN = 0, UP = 1\n\n    bytes32 private startPrice;\n    uint startBlock;\n  MakerDAO makerDAO = MakerDAO(0xE39451e34f8FB108a8F6d4cA6C68dd38f37d26E3); // rinkeby\n\n  constructor(\n    address _feeAddress,\n    uint256 _gameFeePercent,\n    uint256 _stakeSize,\n    uint256 _maxp,\n    uint256 _gameStageLength,\n    address _nptAddress // 0x805cdcf68cc12220f89425be89daa44dbc83ff30\n        )\n    public Game(_feeAddress, _gameFeePercent, _stakeSize, _maxp, _gameStageLength, _nptAddress) {\n  }\n\n  function commit(bytes32 hashedCommit) public payable whenNotPaused {\n\n    // if the first player is playing\n    if (state.currNumberCommits == 0) {\n        startPrice = makerDAO.read();\n        startBlock = block.number;\n    }\n    super.commit(hashedCommit);\n  }\n\n  function checkGuess(string guess) private {\n    uint guessAsInt = stringToUint(guess);\n    require(guessAsInt == uint(gamePlay.DOWN) || guessAsInt == uint(gamePlay.UP));\n  }\n\n  function findWinners() private {\n    address[] memory winners = new address[](config.MAX_PLAYERS);\n    bytes32 newPrice = makerDAO.read();\n\n    if(block.number > startBlock + 240){ // wait approximately one hour\n    uint rightResult = newPrice > startPrice ? uint(gamePlay.UP) : uint(gamePlay.DOWN);\n    for(uint256 i = 0; i < state.currNumberReveals; i++){\n    uint numWinners = 0;\n    uint256 playForPlayer = stringToUint(gameData[gameDataKeys[i]]);\n    if(playForPlayer == rightResult){\n          winners[numWinners] = gameDataKeys[i];\n          numWinners++;\n        }\n      }\n    uint256 prize = address(this).balance.div(numWinners);\n    performPayout(winners, numWinners, prize);\n    }\n  }\n}\n",
  "sourcePath": "/Users/gitprooriginmaster/devel/purescript-playground/contracts/Darecoin.sol",
  "compiler": {
    "name": "solc",
    "version": "0.4.24+commit.e67f0147.Emscripten.clang"
  },
  "schemaVersion": "2.0.1",
  "updatedAt": "2018-08-09T16:51:54.101Z"
}