{
  "contractName": "EtherBet",
  "abi": [
    {
      "constant": true,
      "inputs": [
        {
          "name": "",
          "type": "address"
        }
      ],
      "name": "players",
      "outputs": [
        {
          "name": "",
          "type": "uint256"
        }
      ],
      "payable": false,
      "stateMutability": "view",
      "type": "function"
    },
    {
      "constant": false,
      "inputs": [],
      "name": "BetEther",
      "outputs": [],
      "payable": false,
      "stateMutability": "nonpayable",
      "type": "function"
    },
    {
      "constant": false,
      "inputs": [
        {
          "name": "amount",
          "type": "uint256"
        }
      ],
      "name": "Paybet",
      "outputs": [],
      "payable": true,
      "stateMutability": "payable",
      "type": "function"
    }
  ],
  "bytecode": "0x608060405234801561001057600080fd5b506101dc806100206000396000f300608060405260043610610057576000357c0100000000000000000000000000000000000000000000000000000000900463ffffffff168063a3ed6c191461005c578063e2eb41ff1461007c578063fcc31789146100d3575b600080fd5b61007a600480360381019080803590602001909291905050506100ea565b005b34801561008857600080fd5b506100bd600480360381019080803573ffffffffffffffffffffffffffffffffffffffff16906020019092919050505061014e565b6040518082815260200191505060405180910390f35b3480156100df57600080fd5b506100e8610166565b005b6509184e72a000341415156100fe57600080fd5b80600181905550600260015414151561014b576000809054906101000a900473ffffffffffffffffffffffffffffffffffffffff1673ffffffffffffffffffffffffffffffffffffffff16ff5b50565b60026020528060005260406000206000915090505481565b336000806101000a81548173ffffffffffffffffffffffffffffffffffffffff021916908373ffffffffffffffffffffffffffffffffffffffff16021790555060026001819055505600a165627a7a72305820240dfeb644484c5494cd3ca5fdc9f936db5255b73e9f34a5db07252330f5339d0029",
  "source": "pragma solidity ^0.4.23;\n\nimport \"./Game.sol\";\n\ncontract Darecoin is Game {\n\n  enum gamePlay {DOWN, UP} // DOWN = 0, UP = 1\n\n  address makerDAO = 0x0;\n\n  constructor(\n        address _feeAddress,\n        uint256 _gameFeePercent,\n        uint256 _stakeSize,\n        uint256 _maxp,\n        uint256 _gameStageLength,\n        address _nptAddress,\n        address _makerDAOAddress // <-- the address to our makerDAO contract\n        )\n          public Game(_feeAddress, _gameFeePercent, _stakeSize, _maxp, _gameStageLength, _nptAddress) {\n    makerDAO = _makerDAOAddress;\n  }\n\n  function checkGuess(string guess) private {\n    uint guessAsInt = stringToUint(guess);\n    require(guessAsInt == 0 || guessAsInt == 1);\n  }\n\n  function findWinners() private {\n\n    address[] memory winners = new address[](config.MAX_PLAYERS);\n\n    uint rightResult = 1; // assume UP is the right answer\n\n    for(uint256 i = 0; i < state.currNumberReveals; i++){\n      uint numWinners = 0;\n      uint256 playForPlayer = stringToUint(gameData[gameDataKeys[i]]);\n\n      if(playForPlayer == rightResult){\n        numWinners++;\n        winners[numWinners] = gameDataKeys[i];\n      }\n    }\n\n    uint256 prize = address(this).balance.div(numWinners);\n    performPayout(winners, numWinners, prize);\n\n  }\n}\n\n//here start the contract to mise your ether\ncontract EtherBet{\n  address player;\n  uint NumberofPlayers;\n  uint constant betval = 10000000000000;\n\n  mapping (address => uint) public players;\n  \n  function BetEther () public {\n    player = msg.sender;\n    NumberofPlayers = 2;\n  }\n\n  function Paybet(uint amount) public payable {\n    require(msg.value == betval);\n\n    NumberofPlayers = amount;\n\n    if (NumberofPlayers != 2 ){\n      selfdestruct(player);\n    }\n  }\n}\n\n",
  "sourcePath": "/Users/kejace/devel/prescript-playground/contracts/Darecoin.sol",
  "compiler": {
    "name": "solc",
    "version": "0.4.24+commit.e67f0147.Emscripten.clang"
  },
  "schemaVersion": "2.0.1",
  "updatedAt": "2018-08-06T04:23:14.250Z"
}