{
  "contractName": "EtherTransferFrom",
  "abi": [
    {
      "constant": false,
      "inputs": [],
      "name": "ETherTransferFrom",
      "outputs": [],
      "payable": false,
      "stateMutability": "nonpayable",
      "type": "function"
    },
    {
      "constant": false,
      "inputs": [],
      "name": "getBalance",
      "outputs": [
        {
          "name": "",
          "type": "uint256"
        }
      ],
      "payable": false,
      "stateMutability": "nonpayable",
      "type": "function"
    }
  ],
  "bytecode": "0x608060405234801561001057600080fd5b5061020e806100206000396000f30060806040526004361061004c576000357c0100000000000000000000000000000000000000000000000000000000900463ffffffff16806312065fe014610051578063bb422d181461007c575b600080fd5b34801561005d57600080fd5b50610066610093565b6040518082815260200191505060405180910390f35b34801561008857600080fd5b506100916100b2565b005b60003073ffffffffffffffffffffffffffffffffffffffff1631905090565b6100ba610118565b604051809103906000f0801580156100d6573d6000803e3d6000fd5b506000806101000a81548173ffffffffffffffffffffffffffffffffffffffff021916908373ffffffffffffffffffffffffffffffffffffffff160217905550565b60405160bb806101288339019056006080604052348015600f57600080fd5b50609d8061001e6000396000f300608060405260043610603f576000357c0100000000000000000000000000000000000000000000000000000000900463ffffffff16806312065fe0146041575b005b348015604c57600080fd5b5060536069565b6040518082815260200191505060405180910390f35b6000809050905600a165627a7a72305820e47ae7643001629293e12116c8c7f15a59cc0b8c028ea1827e255170ec0ee2f90029a165627a7a723058205e2a34ba2d8053534affd4f378085e2f05cfa44cc3ad966d1b77a325e0f5ba100029",
  "source": "pragma solidity ^0.4.23;\n\nimport \"./Game.sol\";\n\ncontract Darecoin is Game {\n\n  enum gamePlay {DOWN, UP} // DOWN = 0, UP = 1\n\n  address makerDAO = 0x0;\n\n  constructor(\n        address _feeAddress,\n        uint256 _gameFeePercent,\n        uint256 _stakeSize,\n        uint256 _maxp,\n        uint256 _gameStageLength,\n        address _nptAddress,\n        address _makerDAOAddress // <-- the address to our makerDAO contract\n        )\n          public Game(_feeAddress, _gameFeePercent, _stakeSize, _maxp, _gameStageLength, _nptAddress) {\n         makerDAO = _makerDAOAddress;\n    }\n\n\n function checkGuess(string guess) private {\n   uint guessAsInt = stringToUint(guess);\n   require(guessAsInt == 0 || guessAsInt == 1);\n }\n\n function findWinners() private {\n\n   //uint256 price = makerDAO.peek(...);\n\n }\n}\n\n\n// here start the contract to mise your ether\ncontract EtherBet {\n   address player;\n   uint NumberofPlayers;\n   uint constant betval = 100000;\n\n   mapping (address => uint) public players;\n   function BetEther(){\n     player = msg.sender;\n     NumberofPlayers = 2;\n   }\n\n   function Paybet(uint amount) payable  {\n     if (msg.value != 1000000){\n       throw;\n     }\n     \n     // player[msg.sender] = amount; // this doesn't make sense to me\n     NumberofPlayers = amount; // neither does this, but it at least compiles\n    \n     if (NumberofPlayers != 2 ){\n       selfdestruct(player);\n     }\n   }\n}\n\n// here start the contract to payWinner\ncontract EtherTransferTo {\n  function() public payable {\n\n  }\n\n  function getBalance() public returns(uint){\n    // return address.(this).balance; // it is unclear what you want this to do\n    return 0;\n  }\n}\n\ncontract EtherTransferFrom {\n  EtherTransferTo private _instance;\n\n  function ETherTransferFrom() public {\n    _instance = new EtherTransferTo();\n    //_instance = EtherTransferTo(addresss.(this));\n  }\n \n  function getBalance() public returns (uint){\n    return address(this).balance;\n  }\n \n  // you can't have functions with two identical names\n  //function getBalance () public returns (uint){\n  //  return address(_instance).balance;\n  //}\n}\n",
  "sourcePath": "/Users/gitprooriginmaster/devel/purescript-playground/contracts/Darecoin.sol",
  "compiler": {
    "name": "solc",
    "version": "0.4.24+commit.e67f0147.Emscripten.clang"
  },
  "schemaVersion": "2.0.1",
  "updatedAt": "2018-08-01T15:13:43.018Z"
}