{
  "contractName": "LowestUniqueNum",
  "abi": [
    {
      "constant": true,
      "inputs": [],
      "name": "getLastPrize",
      "outputs": [
        {
          "name": "",
          "type": "uint256"
        }
      ],
      "payable": false,
      "stateMutability": "view",
      "type": "function"
    },
    {
      "constant": true,
      "inputs": [],
      "name": "getCurrentCommits",
      "outputs": [
        {
          "name": "",
          "type": "uint256"
        }
      ],
      "payable": false,
      "stateMutability": "view",
      "type": "function"
    },
    {
      "constant": false,
      "inputs": [
        {
          "name": "new_max",
          "type": "uint256"
        }
      ],
      "name": "setMaxPlayers",
      "outputs": [],
      "payable": false,
      "stateMutability": "nonpayable",
      "type": "function"
    },
    {
      "constant": true,
      "inputs": [
        {
          "name": "",
          "type": "address"
        }
      ],
      "name": "gameData",
      "outputs": [
        {
          "name": "",
          "type": "string"
        }
      ],
      "payable": false,
      "stateMutability": "view",
      "type": "function"
    },
    {
      "constant": true,
      "inputs": [],
      "name": "getGameStageLength",
      "outputs": [
        {
          "name": "",
          "type": "uint256"
        }
      ],
      "payable": false,
      "stateMutability": "view",
      "type": "function"
    },
    {
      "constant": true,
      "inputs": [],
      "name": "getCurrentReveals",
      "outputs": [
        {
          "name": "",
          "type": "uint256"
        }
      ],
      "payable": false,
      "stateMutability": "view",
      "type": "function"
    },
    {
      "constant": false,
      "inputs": [],
      "name": "unpause",
      "outputs": [],
      "payable": false,
      "stateMutability": "nonpayable",
      "type": "function"
    },
    {
      "constant": true,
      "inputs": [],
      "name": "getGameStateInfo",
      "outputs": [
        {
          "name": "_state",
          "type": "uint256"
        },
        {
          "name": "_currNumberCommits",
          "type": "uint256"
        },
        {
          "name": "_currNumberReveals",
          "type": "uint256"
        },
        {
          "name": "_commitStageStartBlock",
          "type": "uint256"
        },
        {
          "name": "_revealStageStartBlock",
          "type": "uint256"
        },
        {
          "name": "_stageLength",
          "type": "uint256"
        }
      ],
      "payable": false,
      "stateMutability": "view",
      "type": "function"
    },
    {
      "constant": true,
      "inputs": [],
      "name": "rules",
      "outputs": [
        {
          "name": "MIN_GUESS",
          "type": "uint256"
        },
        {
          "name": "MAX_GUESS",
          "type": "uint256"
        }
      ],
      "payable": false,
      "stateMutability": "view",
      "type": "function"
    },
    {
      "constant": false,
      "inputs": [
        {
          "name": "guess",
          "type": "string"
        },
        {
          "name": "random",
          "type": "string"
        }
      ],
      "name": "reveal",
      "outputs": [],
      "payable": false,
      "stateMutability": "nonpayable",
      "type": "function"
    },
    {
      "constant": true,
      "inputs": [],
      "name": "getGameFee",
      "outputs": [
        {
          "name": "",
          "type": "uint256"
        }
      ],
      "payable": false,
      "stateMutability": "view",
      "type": "function"
    },
    {
      "constant": true,
      "inputs": [],
      "name": "paused",
      "outputs": [
        {
          "name": "",
          "type": "bool"
        }
      ],
      "payable": false,
      "stateMutability": "view",
      "type": "function"
    },
    {
      "constant": false,
      "inputs": [],
      "name": "payout",
      "outputs": [],
      "payable": false,
      "stateMutability": "nonpayable",
      "type": "function"
    },
    {
      "constant": true,
      "inputs": [
        {
          "name": "i",
          "type": "uint256"
        }
      ],
      "name": "getLastWinners",
      "outputs": [
        {
          "name": "",
          "type": "address"
        }
      ],
      "payable": false,
      "stateMutability": "view",
      "type": "function"
    },
    {
      "constant": true,
      "inputs": [],
      "name": "getCommitStageStartBlock",
      "outputs": [
        {
          "name": "",
          "type": "uint256"
        }
      ],
      "payable": false,
      "stateMutability": "view",
      "type": "function"
    },
    {
      "constant": false,
      "inputs": [],
      "name": "renounceOwnership",
      "outputs": [],
      "payable": false,
      "stateMutability": "nonpayable",
      "type": "function"
    },
    {
      "constant": false,
      "inputs": [],
      "name": "forceToPayoutState",
      "outputs": [],
      "payable": false,
      "stateMutability": "nonpayable",
      "type": "function"
    },
    {
      "constant": true,
      "inputs": [],
      "name": "getStakeSize",
      "outputs": [
        {
          "name": "",
          "type": "uint256"
        }
      ],
      "payable": false,
      "stateMutability": "view",
      "type": "function"
    },
    {
      "constant": true,
      "inputs": [
        {
          "name": "",
          "type": "address"
        }
      ],
      "name": "commits",
      "outputs": [
        {
          "name": "",
          "type": "bytes32"
        }
      ],
      "payable": false,
      "stateMutability": "view",
      "type": "function"
    },
    {
      "constant": false,
      "inputs": [],
      "name": "pause",
      "outputs": [],
      "payable": false,
      "stateMutability": "nonpayable",
      "type": "function"
    },
    {
      "constant": false,
      "inputs": [],
      "name": "forceToRevealState",
      "outputs": [],
      "payable": false,
      "stateMutability": "nonpayable",
      "type": "function"
    },
    {
      "constant": true,
      "inputs": [],
      "name": "getMaxPlayers",
      "outputs": [
        {
          "name": "",
          "type": "uint256"
        }
      ],
      "payable": false,
      "stateMutability": "view",
      "type": "function"
    },
    {
      "constant": true,
      "inputs": [],
      "name": "owner",
      "outputs": [
        {
          "name": "",
          "type": "address"
        }
      ],
      "payable": false,
      "stateMutability": "view",
      "type": "function"
    },
    {
      "constant": true,
      "inputs": [],
      "name": "getNumberOfWinners",
      "outputs": [
        {
          "name": "",
          "type": "uint256"
        }
      ],
      "payable": false,
      "stateMutability": "view",
      "type": "function"
    },
    {
      "constant": true,
      "inputs": [],
      "name": "getLastWinningGuess",
      "outputs": [
        {
          "name": "",
          "type": "string"
        }
      ],
      "payable": false,
      "stateMutability": "view",
      "type": "function"
    },
    {
      "constant": true,
      "inputs": [],
      "name": "getRevealStageStartBlock",
      "outputs": [
        {
          "name": "",
          "type": "uint256"
        }
      ],
      "payable": false,
      "stateMutability": "view",
      "type": "function"
    },
    {
      "constant": true,
      "inputs": [],
      "name": "getRound",
      "outputs": [
        {
          "name": "",
          "type": "uint256"
        }
      ],
      "payable": false,
      "stateMutability": "view",
      "type": "function"
    },
    {
      "constant": true,
      "inputs": [],
      "name": "testLowest",
      "outputs": [
        {
          "name": "",
          "type": "uint256"
        }
      ],
      "payable": false,
      "stateMutability": "view",
      "type": "function"
    },
    {
      "constant": true,
      "inputs": [],
      "name": "getGameState",
      "outputs": [
        {
          "name": "",
          "type": "uint256"
        }
      ],
      "payable": false,
      "stateMutability": "view",
      "type": "function"
    },
    {
      "constant": false,
      "inputs": [],
      "name": "resetGame",
      "outputs": [],
      "payable": false,
      "stateMutability": "nonpayable",
      "type": "function"
    },
    {
      "constant": true,
      "inputs": [],
      "name": "birthBlock",
      "outputs": [
        {
          "name": "",
          "type": "uint256"
        }
      ],
      "payable": false,
      "stateMutability": "view",
      "type": "function"
    },
    {
      "constant": false,
      "inputs": [
        {
          "name": "hashedCommit",
          "type": "bytes32"
        }
      ],
      "name": "commit",
      "outputs": [],
      "payable": true,
      "stateMutability": "payable",
      "type": "function"
    },
    {
      "constant": false,
      "inputs": [
        {
          "name": "newOwner",
          "type": "address"
        }
      ],
      "name": "transferOwnership",
      "outputs": [],
      "payable": false,
      "stateMutability": "nonpayable",
      "type": "function"
    },
    {
      "constant": false,
      "inputs": [
        {
          "name": "new_stake",
          "type": "uint256"
        }
      ],
      "name": "setStakeSize",
      "outputs": [],
      "payable": false,
      "stateMutability": "nonpayable",
      "type": "function"
    },
    {
      "inputs": [
        {
          "name": "_feeAddress",
          "type": "address"
        },
        {
          "name": "_gameFeePercent",
          "type": "uint256"
        },
        {
          "name": "_stakeSize",
          "type": "uint256"
        },
        {
          "name": "_maxp",
          "type": "uint256"
        },
        {
          "name": "_gameStageLength",
          "type": "uint256"
        },
        {
          "name": "_nptAddress",
          "type": "address"
        }
      ],
      "payable": false,
      "stateMutability": "nonpayable",
      "type": "constructor"
    },
    {
      "anonymous": false,
      "inputs": [],
      "name": "CommitsSubmitted",
      "type": "event"
    },
    {
      "anonymous": false,
      "inputs": [],
      "name": "RevealsSubmitted",
      "type": "event"
    },
    {
      "anonymous": false,
      "inputs": [],
      "name": "NewRoundStarted",
      "type": "event"
    },
    {
      "anonymous": false,
      "inputs": [],
      "name": "Pause",
      "type": "event"
    },
    {
      "anonymous": false,
      "inputs": [],
      "name": "Unpause",
      "type": "event"
    },
    {
      "anonymous": false,
      "inputs": [
        {
          "indexed": true,
          "name": "previousOwner",
          "type": "address"
        }
      ],
      "name": "OwnershipRenounced",
      "type": "event"
    },
    {
      "anonymous": false,
      "inputs": [
        {
          "indexed": true,
          "name": "previousOwner",
          "type": "address"
        },
        {
          "indexed": true,
          "name": "newOwner",
          "type": "address"
        }
      ],
      "name": "OwnershipTransferred",
      "type": "event"
    }
  ],
  "bytecode": "0x608060405260008060146101000a81548160ff02191690831515021790555043600155600260000160009054906101000a900473ffffffffffffffffffffffffffffffffffffffff16601860006101000a81548173ffffffffffffffffffffffffffffffffffffffff021916908373ffffffffffffffffffffffffffffffffffffffff1602179055506000601d553480156200009a57600080fd5b5060405160c08062002d20833981018060405281019080805190602001909291908051906020019092919080519060200190929190805190602001909291908051906020019092919080519060200190929190505050858585858585336000806101000a81548173ffffffffffffffffffffffffffffffffffffffff021916908373ffffffffffffffffffffffffffffffffffffffff160217905550336000806101000a81548173ffffffffffffffffffffffffffffffffffffffff021916908373ffffffffffffffffffffffffffffffffffffffff16021790555081600260030181905550846002600101819055508260026004018190555083600280018190555085600260000160006101000a81548173ffffffffffffffffffffffffffffffffffffffff021916908373ffffffffffffffffffffffffffffffffffffffff16021790555080600260050160006101000a81548173ffffffffffffffffffffffffffffffffffffffff021916908373ffffffffffffffffffffffffffffffffffffffff1602179055506000600860000160006101000a81548160ff021916908360028111156200024857fe5b0217905550600060086002018190555060006008600301819055506200028d6002600301546000196200049b6401000000000262002545179091906401000000009004565b600860040181905550620002c06002600301546000196200049b6401000000000262002545179091906401000000009004565b6008600501819055506000600f6003018190555082604051908082528060200260200182016040528015620003045781602001602082028038833980820191505090505b50601490805190602001906200031c929190620004b5565b50826040519080825280602002602001820160405280156200034d5781602001602082028038833980820191505090505b506016908051906020019062000365929190620004b5565b5082604051908082528060200260200182016040528015620003965781602001602082028038833980820191505090505b50600f6000019080519060200190620003b1929190620004b5565b506020604051908101604052806000815250600f6002019080519060200190620003dd92919062000544565b506000600f60010181905550600260050160009054906101000a900473ffffffffffffffffffffffffffffffffffffffff16601760006101000a81548173ffffffffffffffffffffffffffffffffffffffff021916908373ffffffffffffffffffffffffffffffffffffffff1602179055505050505050506000601b600001819055506200048660016000196200049b6401000000000262002545179091906401000000009004565b601b6001018190555050505050505062000639565b6000828211151515620004aa57fe5b818303905092915050565b82805482825590600052602060002090810192821562000531579160200282015b82811115620005305782518260006101000a81548173ffffffffffffffffffffffffffffffffffffffff021916908373ffffffffffffffffffffffffffffffffffffffff16021790555091602001919060010190620004d6565b5b509050620005409190620005cb565b5090565b828054600181600116156101000203166002900490600052602060002090601f016020900481019282601f106200058757805160ff1916838001178555620005b8565b82800160010185558215620005b8579182015b82811115620005b75782518255916020019190600101906200059a565b5b509050620005c7919062000611565b5090565b6200060e91905b808211156200060a57600081816101000a81549073ffffffffffffffffffffffffffffffffffffffff021916905550600101620005d2565b5090565b90565b6200063691905b808211156200063257600081600090555060010162000618565b5090565b90565b6126d780620006496000396000f3006080604052600436106101ac576000357c0100000000000000000000000000000000000000000000000000000000900463ffffffff1680630cfa6131146101b15780630d7099ea146101dc578063288dee3b1461020757806329bb80a014610234578063349570d5146102f05780633e62aa721461031b5780633f4ba83a146103465780635086f3301461035d57806352f6747a146103ab5780635ba1b2c7146103dd5780635bba88f11461048c5780635c975abb146104b757806363bd1d4a146104e65780636764f6fb146104fd5780636cb9a3901461056a578063715018a614610595578063760704c1146105ac57806376cc4b7e146105c35780637b43a8e6146105ee5780638456cb591461064d57806386b2b986146106645780638cbd9eb81461067b5780638da5cb5b146106a65780638e33cffc146106fd5780639319c556146107285780639ebefb68146107b85780639f8743f7146107e3578063a7a7769f1461080e578063b7d0628b14610839578063bb47221914610864578063bba4b31e1461087b578063f14fcbc8146108a6578063f2fde38b146108ca578063f3b9204e1461090d575b600080fd5b3480156101bd57600080fd5b506101c661093a565b6040518082815260200191505060405180910390f35b3480156101e857600080fd5b506101f1610947565b6040518082815260200191505060405180910390f35b34801561021357600080fd5b5061023260048036038101908080359060200190929190505050610954565b005b34801561024057600080fd5b50610275600480360381019080803573ffffffffffffffffffffffffffffffffffffffff1690602001909291905050506109bc565b6040518080602001828103825283818151815260200191508051906020019080838360005b838110156102b557808201518184015260208101905061029a565b50505050905090810190601f1680156102e25780820380516001836020036101000a031916815260200191505b509250505060405180910390f35b3480156102fc57600080fd5b50610305610a6c565b6040518082815260200191505060405180910390f35b34801561032757600080fd5b50610330610a79565b6040518082815260200191505060405180910390f35b34801561035257600080fd5b5061035b610a86565b005b34801561036957600080fd5b50610372610b44565b60405180878152602001868152602001858152602001848152602001838152602001828152602001965050505050505060405180910390f35b3480156103b757600080fd5b506103c0610b85565b604051808381526020018281526020019250505060405180910390f35b3480156103e957600080fd5b5061048a600480360381019080803590602001908201803590602001908080601f0160208091040260200160405190810160405280939291908181526020018383808284378201915050505050509192919290803590602001908201803590602001908080601f0160208091040260200160405190810160405280939291908181526020018383808284378201915050505050509192919290505050610b97565b005b34801561049857600080fd5b506104a1610ea0565b6040518082815260200191505060405180910390f35b3480156104c357600080fd5b506104cc610ead565b604051808215151515815260200191505060405180910390f35b3480156104f257600080fd5b506104fb610ec0565b005b34801561050957600080fd5b5061052860048036038101908080359060200190929190505050610f7f565b604051808273ffffffffffffffffffffffffffffffffffffffff1673ffffffffffffffffffffffffffffffffffffffff16815260200191505060405180910390f35b34801561057657600080fd5b5061057f610fd8565b6040518082815260200191505060405180910390f35b3480156105a157600080fd5b506105aa610fe5565b005b3480156105b857600080fd5b506105c16110e7565b005b3480156105cf57600080fd5b506105d86111ba565b6040518082815260200191505060405180910390f35b3480156105fa57600080fd5b5061062f600480360381019080803573ffffffffffffffffffffffffffffffffffffffff1690602001909291905050506111c6565b60405180826000191660001916815260200191505060405180910390f35b34801561065957600080fd5b506106626111de565b005b34801561067057600080fd5b5061067961129e565b005b34801561068757600080fd5b50610690611371565b6040518082815260200191505060405180910390f35b3480156106b257600080fd5b506106bb61137e565b604051808273ffffffffffffffffffffffffffffffffffffffff1673ffffffffffffffffffffffffffffffffffffffff16815260200191505060405180910390f35b34801561070957600080fd5b506107126113a3565b6040518082815260200191505060405180910390f35b34801561073457600080fd5b5061073d6113b0565b6040518080602001828103825283818151815260200191508051906020019080838360005b8381101561077d578082015181840152602081019050610762565b50505050905090810190601f1680156107aa5780820380516001836020036101000a031916815260200191505b509250505060405180910390f35b3480156107c457600080fd5b506107cd611455565b6040518082815260200191505060405180910390f35b3480156107ef57600080fd5b506107f8611462565b6040518082815260200191505060405180910390f35b34801561081a57600080fd5b5061082361146f565b6040518082815260200191505060405180910390f35b34801561084557600080fd5b5061084e611475565b6040518082815260200191505060405180910390f35b34801561087057600080fd5b50610879611482565b005b34801561088757600080fd5b50610890611585565b6040518082815260200191505060405180910390f35b6108c8600480360381019080803560001916906020019092919050505061158b565b005b3480156108d657600080fd5b5061090b600480360381019080803573ffffffffffffffffffffffffffffffffffffffff169060200190929190505050611747565b005b34801561091957600080fd5b506109386004803603810190808035906020019092919050505061189c565b005b6000600f60030154905090565b6000600860020154905090565b6000809054906101000a900473ffffffffffffffffffffffffffffffffffffffff1673ffffffffffffffffffffffffffffffffffffffff163373ffffffffffffffffffffffffffffffffffffffff161415156109af57600080fd5b8060026004018190555050565b60156020528060005260406000206000915090508054600181600116156101000203166002900480601f016020809104026020016040519081016040528092919081815260200182805460018160011615610100020316600290048015610a645780601f10610a3957610100808354040283529160200191610a64565b820191906000526020600020905b815481529060010190602001808311610a4757829003601f168201915b505050505081565b6000600260030154905090565b6000600860030154905090565b6000809054906101000a900473ffffffffffffffffffffffffffffffffffffffff1673ffffffffffffffffffffffffffffffffffffffff163373ffffffffffffffffffffffffffffffffffffffff16141515610ae157600080fd5b600060149054906101000a900460ff161515610afc57600080fd5b60008060146101000a81548160ff0219169083151502179055507f7805862f689e2f13df9f062ff482ad3ad112aca9e0847911ed832e158c525b3360405160405180910390a1565b600080600080600080600860010154600860020154600860030154600860040154600860050154600260030154955095509550955095509550909192939495565b601b8060000154908060010154905082565b600060149054906101000a900460ff16151515610bb357600080fd5b60016002811115610bc057fe5b600860000160009054906101000a900460ff166002811115610bde57fe5b141515610bea57600080fd5b610bf382611903565b81816040516020018083805190602001908083835b602083101515610c2d5780518252602082019150602081019050602083039250610c08565b6001836020036101000a03801982511681845116808217855250505050505090500182805190602001908083835b602083101515610c805780518252602082019150602081019050602083039250610c5b565b6001836020036101000a038019825116818451168082178552505050505050905001925050506040516020818303038152906040526040518082805190602001908083835b602083101515610cea5780518252602082019150602081019050602083039250610cc5565b6001836020036101000a038019825116818451168082178552505050505050905001915050604051809103902060001916601360003373ffffffffffffffffffffffffffffffffffffffff1673ffffffffffffffffffffffffffffffffffffffff1681526020019081526020016000205460001916141515610d6b57600080fd5b601360003373ffffffffffffffffffffffffffffffffffffffff1673ffffffffffffffffffffffffffffffffffffffff1681526020019081526020016000206000905581601560003373ffffffffffffffffffffffffffffffffffffffff1673ffffffffffffffffffffffffffffffffffffffff1681526020019081526020016000209080519060200190610e0192919061255e565b50336016600860030154815481101515610e1757fe5b9060005260206000200160006101000a81548173ffffffffffffffffffffffffffffffffffffffff021916908373ffffffffffffffffffffffffffffffffffffffff160217905550610e78600160086003015461193990919063ffffffff16565b6008600301819055506002600401546008600301541415610e9c57610e9b611955565b5b5050565b6000600260010154905090565b600060149054906101000a900460ff1681565b6000809054906101000a900473ffffffffffffffffffffffffffffffffffffffff1673ffffffffffffffffffffffffffffffffffffffff163373ffffffffffffffffffffffffffffffffffffffff16141515610f1b57600080fd5b600060149054906101000a900460ff16151515610f3757600080fd5b600280811115610f4357fe5b600860000160009054906101000a900460ff166002811115610f6157fe5b141515610f6d57600080fd5b610f756119b5565b610f7d611f94565b565b6000600f6001015482101515610f9457600080fd5b600f60000182815481101515610fa657fe5b9060005260206000200160009054906101000a900473ffffffffffffffffffffffffffffffffffffffff169050919050565b6000600860040154905090565b6000809054906101000a900473ffffffffffffffffffffffffffffffffffffffff1673ffffffffffffffffffffffffffffffffffffffff163373ffffffffffffffffffffffffffffffffffffffff1614151561104057600080fd5b6000809054906101000a900473ffffffffffffffffffffffffffffffffffffffff1673ffffffffffffffffffffffffffffffffffffffff167ff8df31144d9c2f0f6b59d69b8b98abd5459d07f2742c4df920b25aae33c6482060405160405180910390a260008060006101000a81548173ffffffffffffffffffffffffffffffffffffffff021916908373ffffffffffffffffffffffffffffffffffffffff160217905550565b6000809054906101000a900473ffffffffffffffffffffffffffffffffffffffff1673ffffffffffffffffffffffffffffffffffffffff163373ffffffffffffffffffffffffffffffffffffffff1614151561114257600080fd5b600060149054906101000a900460ff1615151561115e57600080fd5b6001600281111561116b57fe5b600860000160009054906101000a900460ff16600281111561118957fe5b14151561119557600080fd5b4360026003015460086005015401111515156111b057600080fd5b6111b8611955565b565b60006002800154905090565b60136020528060005260406000206000915090505481565b6000809054906101000a900473ffffffffffffffffffffffffffffffffffffffff1673ffffffffffffffffffffffffffffffffffffffff163373ffffffffffffffffffffffffffffffffffffffff1614151561123957600080fd5b600060149054906101000a900460ff1615151561125557600080fd5b6001600060146101000a81548160ff0219169083151502179055507f6985a02210a168e66602d3235cb6db0e70f92b3ba4d376a33c0f3d9434bff62560405160405180910390a1565b6000809054906101000a900473ffffffffffffffffffffffffffffffffffffffff1673ffffffffffffffffffffffffffffffffffffffff163373ffffffffffffffffffffffffffffffffffffffff161415156112f957600080fd5b600060149054906101000a900460ff1615151561131557600080fd5b6000600281111561132257fe5b600860000160009054906101000a900460ff16600281111561134057fe5b14151561134c57600080fd5b43600260030154600860040154011115151561136757600080fd5b61136f612102565b565b6000600260040154905090565b6000809054906101000a900473ffffffffffffffffffffffffffffffffffffffff1681565b6000600f60010154905090565b6060600f6002018054600181600116156101000203166002900480601f01602080910402602001604051908101604052809291908181526020018280546001816001161561010002031660029004801561144b5780601f106114205761010080835404028352916020019161144b565b820191906000526020600020905b81548152906001019060200180831161142e57829003601f168201915b5050505050905090565b6000600860050154905090565b6000600860060154905090565b601d5481565b6000600860010154905090565b60008060009054906101000a900473ffffffffffffffffffffffffffffffffffffffff1673ffffffffffffffffffffffffffffffffffffffff163373ffffffffffffffffffffffffffffffffffffffff161415156114df57600080fd5b600060149054906101000a900460ff161515156114fb57600080fd5b611503611f94565b6000600f60030181905550600090505b600f6001015481101561156c57600f6000018181548110151561153257fe5b9060005260206000200160006101000a81549073ffffffffffffffffffffffffffffffffffffffff02191690558080600101915050611513565b6000600f60010181905550600060086006018190555050565b60015481565b600060149054906101000a900460ff161515156115a757600080fd5b600060028111156115b457fe5b600860000160009054906101000a900460ff1660028111156115d257fe5b1415156115de57600080fd5b6002800154341415156115f057600080fd5b600060010260001916601360003373ffffffffffffffffffffffffffffffffffffffff1673ffffffffffffffffffffffffffffffffffffffff168152602001908152602001600020546000191614151561164957600080fd5b80601360003373ffffffffffffffffffffffffffffffffffffffff1673ffffffffffffffffffffffffffffffffffffffff16815260200190815260200160002081600019169055503360146008600201548154811015156116a657fe5b9060005260206000200160006101000a81548173ffffffffffffffffffffffffffffffffffffffff021916908373ffffffffffffffffffffffffffffffffffffffff160217905550611707600160086002015461193990919063ffffffff16565b6008600201819055506001600860020154141561172957436008600401819055505b600260040154600860020154141561174457611743612102565b5b50565b6000809054906101000a900473ffffffffffffffffffffffffffffffffffffffff1673ffffffffffffffffffffffffffffffffffffffff163373ffffffffffffffffffffffffffffffffffffffff161415156117a257600080fd5b600073ffffffffffffffffffffffffffffffffffffffff168173ffffffffffffffffffffffffffffffffffffffff16141515156117de57600080fd5b8073ffffffffffffffffffffffffffffffffffffffff166000809054906101000a900473ffffffffffffffffffffffffffffffffffffffff1673ffffffffffffffffffffffffffffffffffffffff167f8be0079c531659141344cd1fd0a4f28419497f9722a3daafe3b4186f6b6457e060405160405180910390a3806000806101000a81548173ffffffffffffffffffffffffffffffffffffffff021916908373ffffffffffffffffffffffffffffffffffffffff16021790555050565b6000809054906101000a900473ffffffffffffffffffffffffffffffffffffffff1673ffffffffffffffffffffffffffffffffffffffff163373ffffffffffffffffffffffffffffffffffffffff161415156118f757600080fd5b80600280018190555050565b600061190e8261216c565b9050601b60000154811015801561192a5750601b600101548111155b151561193557600080fd5b5050565b6000818301905082811015151561194c57fe5b80905092915050565b6002600860000160006101000a81548160ff0219169083600281111561197757fe5b021790555060026008600101819055507f249eb5abee408afd11bfd7a0449ece5a765def88489dd844882a500f87280a2460405160405180910390a1565b60008060006060600080600080600097505b600860030154881015611c7f57611aed6015600060168b8154811015156119ea57fe5b9060005260206000200160009054906101000a900473ffffffffffffffffffffffffffffffffffffffff1673ffffffffffffffffffffffffffffffffffffffff1673ffffffffffffffffffffffffffffffffffffffff1681526020019081526020016000208054600181600116156101000203166002900480601f016020809104026020016040519081016040528092919081815260200182805460018160011615610100020316600290048015611ae35780601f10611ab857610100808354040283529160200191611ae3565b820191906000526020600020905b815481529060010190602001808311611ac657829003601f168201915b505050505061216c565b965060006019600089815260200190815260200160002060009054906101000a900473ffffffffffffffffffffffffffffffffffffffff1673ffffffffffffffffffffffffffffffffffffffff161415611bfd57601688815481101515611b5057fe5b9060005260206000200160009054906101000a900473ffffffffffffffffffffffffffffffffffffffff166019600089815260200190815260200160002060006101000a81548173ffffffffffffffffffffffffffffffffffffffff021916908373ffffffffffffffffffffffffffffffffffffffff160217905550601a879080600181540180825580915050906001820390600052602060002001600090919290919091505550611c72565b601860009054906101000a900473ffffffffffffffffffffffffffffffffffffffff166019600089815260200190815260200160002060006101000a81548173ffffffffffffffffffffffffffffffffffffffff021916908373ffffffffffffffffffffffffffffffffffffffff1602179055505b87806001019850506119c7565b611c986001601b6001015461193990919063ffffffff16565b95506001604051908082528060200260200182016040528015611cca5781602001602082028038833980820191505090505b509450600093505b601a80549050841015611ea657601a84815481101515611cee57fe5b90600052602060002001549250601860009054906101000a900473ffffffffffffffffffffffffffffffffffffffff1673ffffffffffffffffffffffffffffffffffffffff166019600085815260200190815260200160002060009054906101000a900473ffffffffffffffffffffffffffffffffffffffff1673ffffffffffffffffffffffffffffffffffffffff16141515611e635785601a85815481101515611d9557fe5b90600052602060002001541015611e6257601a84815481101515611db557fe5b90600052602060002001549550601a84815481101515611dd157fe5b9060005260206000200154601d819055506019600084815260200190815260200160002060009054906101000a900473ffffffffffffffffffffffffffffffffffffffff16856000815181101515611e2557fe5b9060200190602002019073ffffffffffffffffffffffffffffffffffffffff16908173ffffffffffffffffffffffffffffffffffffffff16815250505b5b6019600084815260200190815260200160002060006101000a81549073ffffffffffffffffffffffffffffffffffffffff02191690558380600101945050611cd2565b601a6000611eb491906125de565b611ef66064611ee86002600101543073ffffffffffffffffffffffffffffffffffffffff163161237690919063ffffffff16565b6123ae90919063ffffffff16565b9150600260000160009054906101000a900473ffffffffffffffffffffffffffffffffffffffff1673ffffffffffffffffffffffffffffffffffffffff166108fc839081150290604051600060405180830381858888f19350505050158015611f63573d6000803e3d6000fd5b503073ffffffffffffffffffffffffffffffffffffffff16319050611f8a856001836123c4565b5050505050505050565b600080600860000160006101000a81548160ff02191690836002811115611fb757fe5b02179055506000600860010181905550600860060160008154809291906001019190505550600090505b600860020154811015612077576013600060148381548110151561200157fe5b9060005260206000200160009054906101000a900473ffffffffffffffffffffffffffffffffffffffff1673ffffffffffffffffffffffffffffffffffffffff1673ffffffffffffffffffffffffffffffffffffffff168152602001908152602001600020600090558080600101915050611fe1565b600060086002018190555060006008600301819055506120a760026003015460001961254590919063ffffffff16565b6008600401819055506120ca60026003015460001961254590919063ffffffff16565b6008600501819055507fc80d42c5999c8ad689a434b47a3eecdc54fa3b27a31b49cb02b8c5075929fecc60405160405180910390a150565b6001600860000160006101000a81548160ff0219169083600281111561212457fe5b02179055506001600860010181905550436008600501819055507f69c81b49bf12351dbabf91faefefa2b2ee324d944cd6a8b3b8416ade0232666460405160405180910390a1565b6000606060008084925060009150600090505b825181101561236b5760307f01000000000000000000000000000000000000000000000000000000000000000283828151811015156121ba57fe5b9060200101517f010000000000000000000000000000000000000000000000000000000000000090047f0100000000000000000000000000000000000000000000000000000000000000027effffffffffffffffffffffffffffffffffffffffffffffffffffffffffffff1916101580156122d2575060397f010000000000000000000000000000000000000000000000000000000000000002838281518110151561226257fe5b9060200101517f010000000000000000000000000000000000000000000000000000000000000090047f0100000000000000000000000000000000000000000000000000000000000000027effffffffffffffffffffffffffffffffffffffffffffffffffffffffffffff191611155b1561235e57603083828151811015156122e757fe5b9060200101517f010000000000000000000000000000000000000000000000000000000000000090047f0100000000000000000000000000000000000000000000000000000000000000027f0100000000000000000000000000000000000000000000000000000000000000900403600a83020191505b808060010191505061217f565b819350505050919050565b60008083141561238957600090506123a8565b818302905081838281151561239a57fe5b041415156123a457fe5b8090505b92915050565b600081838115156123bb57fe5b04905092915050565b600082600f60010181905550600090505b828110156125355783818151811015156123eb57fe5b9060200190602002015173ffffffffffffffffffffffffffffffffffffffff166108fc839081150290604051600060405180830381858888f1935050505015801561243a573d6000803e3d6000fd5b50838181518110151561244957fe5b90602001906020020151600f6000018281548110151561246557fe5b9060005260206000200160006101000a81548173ffffffffffffffffffffffffffffffffffffffff021916908373ffffffffffffffffffffffffffffffffffffffff1602179055506015600085838151811015156124bf57fe5b9060200190602002015173ffffffffffffffffffffffffffffffffffffffff1673ffffffffffffffffffffffffffffffffffffffff168152602001908152602001600020600f60020190805460018160011615610100020316600290046125279291906125ff565b5080806001019150506123d5565b81600f6003018190555050505050565b600082821115151561255357fe5b818303905092915050565b828054600181600116156101000203166002900490600052602060002090601f016020900481019282601f1061259f57805160ff19168380011785556125cd565b828001600101855582156125cd579182015b828111156125cc5782518255916020019190600101906125b1565b5b5090506125da9190612686565b5090565b50805460008255906000526020600020908101906125fc9190612686565b50565b828054600181600116156101000203166002900490600052602060002090601f016020900481019282601f106126385780548555612675565b8280016001018555821561267557600052602060002091601f016020900482015b82811115612674578254825591600101919060010190612659565b5b5090506126829190612686565b5090565b6126a891905b808211156126a457600081600090555060010161268c565b5090565b905600a165627a7a72305820b15e58ac0be366ce6570bf5c90be3f793f10a5dbccf64424e68f4c6a8538b22d0029",
  "source": "pragma solidity ^0.4.23;\n\nimport \"./Game.sol\";\n\n\n//NEEDED: Account for scenario where no one wins (no unique number) !!!\ncontract LowestUniqueNum is Game {\n    using SafeMath for uint256;\n\n    address NULL_ADDR = config.FEE_ADDRESS;\n\n    // Guesses and guesser addresses\n    mapping (uint256 => address) private guessAddrs;\n    uint256[] private guesses;\n\n    struct Rules {\n        uint256 MIN_GUESS;\n        uint256 MAX_GUESS;\n    }\n\n    Rules public rules;\n\n    // Debug\n    uint256 public testLowest = 0;\n\n    constructor(\n        address _feeAddress,\n        uint256 _gameFeePercent,\n        uint256 _stakeSize,\n        uint256 _maxp, \n        uint256 _gameStageLength,\n        address _nptAddress) public Game(_feeAddress, _gameFeePercent, _stakeSize, _maxp, _gameStageLength, _nptAddress) {\n        rules.MIN_GUESS = 0;\n        rules.MAX_GUESS = (~uint256(0)).sub(1);\n    }\n\n    function checkGuess(string guess) private {\n        uint256 guess_num = stringToUint(guess);\n        require(guess_num >= rules.MIN_GUESS && guess_num <= rules.MAX_GUESS);\n    }\n\n    function findWinners() private {\n\n        for(uint256 i = 0; i < state.currNumberReveals; i++){\n            uint256 tmp = stringToUint(gameData[gameDataKeys[i]]);\n\n            //If guess is unique input guesser address to mapping\n            if(guessAddrs[tmp] == 0){\n                guessAddrs[tmp] = gameDataKeys[i];\n                guesses.push(tmp);\n            }\n\n            //If guess is no longer unique input NULL_ADDR to mapping\n            else {\n                guessAddrs[tmp] = NULL_ADDR;\n            }\n        }\n\n        uint256 lowest_unique_guess = rules.MAX_GUESS.add(1);\n        //Declared as array for interface purposes\n        address[] memory winner = new address[](1);\n\n        for(uint256 j = 0; j < guesses.length; j++){\n            uint256 cur_guess = guesses[j];\n\n            //If guess is unique\n            if(guessAddrs[cur_guess] != NULL_ADDR){\n                //If guess is lower than current min\n                if(guesses[j] < lowest_unique_guess){\n                    lowest_unique_guess = guesses[j];\n                    testLowest = guesses[j];\n                    winner[0] = guessAddrs[cur_guess];\n                }\n            }\n            //Clear mapping for next round\n            delete guessAddrs[cur_guess];\n        }\n\n        //Clear array for next round\n        delete guesses;\n\n        // Lets pay ourselves some money\n        uint256 gamefee = (address(this).balance.mul(config.GAME_FEE_PERCENT)).div(100);\n        config.FEE_ADDRESS.transfer(gamefee);\n\n        // Give the rest to winner\n        uint256 prize = address(this).balance;\n        performPayout(winner, 1, prize);\n\n\n    } \n}",
  "sourcePath": "/Users/gitprooriginmaster/devel/purescript-playground/contracts/LowestUniqueNum.sol",
  "compiler": {
    "name": "solc",
    "version": "0.4.24+commit.e67f0147.Emscripten.clang"
  },
  "schemaVersion": "2.0.1",
  "updatedAt": "2018-08-09T19:26:53.316Z"
}