{
  "contractName": "RPS",
  "abi": [
    {
      "constant": true,
      "inputs": [],
      "name": "getLastPrize",
      "outputs": [
        {
          "name": "",
          "type": "uint256"
        }
      ],
      "payable": false,
      "stateMutability": "view",
      "type": "function"
    },
    {
      "constant": true,
      "inputs": [],
      "name": "getCurrentCommits",
      "outputs": [
        {
          "name": "",
          "type": "uint256"
        }
      ],
      "payable": false,
      "stateMutability": "view",
      "type": "function"
    },
    {
      "constant": false,
      "inputs": [
        {
          "name": "new_max",
          "type": "uint256"
        }
      ],
      "name": "setMaxPlayers",
      "outputs": [],
      "payable": false,
      "stateMutability": "nonpayable",
      "type": "function"
    },
    {
      "constant": true,
      "inputs": [
        {
          "name": "",
          "type": "address"
        }
      ],
      "name": "gameData",
      "outputs": [
        {
          "name": "",
          "type": "string"
        }
      ],
      "payable": false,
      "stateMutability": "view",
      "type": "function"
    },
    {
      "constant": true,
      "inputs": [],
      "name": "getGameStageLength",
      "outputs": [
        {
          "name": "",
          "type": "uint256"
        }
      ],
      "payable": false,
      "stateMutability": "view",
      "type": "function"
    },
    {
      "constant": true,
      "inputs": [],
      "name": "getCurrentReveals",
      "outputs": [
        {
          "name": "",
          "type": "uint256"
        }
      ],
      "payable": false,
      "stateMutability": "view",
      "type": "function"
    },
    {
      "constant": false,
      "inputs": [],
      "name": "unpause",
      "outputs": [],
      "payable": false,
      "stateMutability": "nonpayable",
      "type": "function"
    },
    {
      "constant": true,
      "inputs": [],
      "name": "getGameStateInfo",
      "outputs": [
        {
          "name": "_state",
          "type": "uint256"
        },
        {
          "name": "_currNumberCommits",
          "type": "uint256"
        },
        {
          "name": "_currNumberReveals",
          "type": "uint256"
        },
        {
          "name": "_commitStageStartBlock",
          "type": "uint256"
        },
        {
          "name": "_revealStageStartBlock",
          "type": "uint256"
        },
        {
          "name": "_stageLength",
          "type": "uint256"
        }
      ],
      "payable": false,
      "stateMutability": "view",
      "type": "function"
    },
    {
      "constant": false,
      "inputs": [
        {
          "name": "guess",
          "type": "string"
        },
        {
          "name": "random",
          "type": "string"
        }
      ],
      "name": "reveal",
      "outputs": [],
      "payable": false,
      "stateMutability": "nonpayable",
      "type": "function"
    },
    {
      "constant": true,
      "inputs": [],
      "name": "getGameFee",
      "outputs": [
        {
          "name": "",
          "type": "uint256"
        }
      ],
      "payable": false,
      "stateMutability": "view",
      "type": "function"
    },
    {
      "constant": true,
      "inputs": [],
      "name": "paused",
      "outputs": [
        {
          "name": "",
          "type": "bool"
        }
      ],
      "payable": false,
      "stateMutability": "view",
      "type": "function"
    },
    {
      "constant": false,
      "inputs": [],
      "name": "payout",
      "outputs": [],
      "payable": false,
      "stateMutability": "nonpayable",
      "type": "function"
    },
    {
      "constant": true,
      "inputs": [
        {
          "name": "i",
          "type": "uint256"
        }
      ],
      "name": "getLastWinners",
      "outputs": [
        {
          "name": "",
          "type": "address"
        }
      ],
      "payable": false,
      "stateMutability": "view",
      "type": "function"
    },
    {
      "constant": true,
      "inputs": [],
      "name": "getCommitStageStartBlock",
      "outputs": [
        {
          "name": "",
          "type": "uint256"
        }
      ],
      "payable": false,
      "stateMutability": "view",
      "type": "function"
    },
    {
      "constant": false,
      "inputs": [],
      "name": "renounceOwnership",
      "outputs": [],
      "payable": false,
      "stateMutability": "nonpayable",
      "type": "function"
    },
    {
      "constant": false,
      "inputs": [],
      "name": "forceToPayoutState",
      "outputs": [],
      "payable": false,
      "stateMutability": "nonpayable",
      "type": "function"
    },
    {
      "constant": true,
      "inputs": [],
      "name": "getStakeSize",
      "outputs": [
        {
          "name": "",
          "type": "uint256"
        }
      ],
      "payable": false,
      "stateMutability": "view",
      "type": "function"
    },
    {
      "constant": true,
      "inputs": [
        {
          "name": "",
          "type": "address"
        }
      ],
      "name": "commits",
      "outputs": [
        {
          "name": "",
          "type": "bytes32"
        }
      ],
      "payable": false,
      "stateMutability": "view",
      "type": "function"
    },
    {
      "constant": false,
      "inputs": [],
      "name": "pause",
      "outputs": [],
      "payable": false,
      "stateMutability": "nonpayable",
      "type": "function"
    },
    {
      "constant": false,
      "inputs": [],
      "name": "forceToRevealState",
      "outputs": [],
      "payable": false,
      "stateMutability": "nonpayable",
      "type": "function"
    },
    {
      "constant": true,
      "inputs": [],
      "name": "getMaxPlayers",
      "outputs": [
        {
          "name": "",
          "type": "uint256"
        }
      ],
      "payable": false,
      "stateMutability": "view",
      "type": "function"
    },
    {
      "constant": true,
      "inputs": [],
      "name": "owner",
      "outputs": [
        {
          "name": "",
          "type": "address"
        }
      ],
      "payable": false,
      "stateMutability": "view",
      "type": "function"
    },
    {
      "constant": true,
      "inputs": [],
      "name": "getNumberOfWinners",
      "outputs": [
        {
          "name": "",
          "type": "uint256"
        }
      ],
      "payable": false,
      "stateMutability": "view",
      "type": "function"
    },
    {
      "constant": true,
      "inputs": [],
      "name": "getLastWinningGuess",
      "outputs": [
        {
          "name": "",
          "type": "string"
        }
      ],
      "payable": false,
      "stateMutability": "view",
      "type": "function"
    },
    {
      "constant": true,
      "inputs": [],
      "name": "getRevealStageStartBlock",
      "outputs": [
        {
          "name": "",
          "type": "uint256"
        }
      ],
      "payable": false,
      "stateMutability": "view",
      "type": "function"
    },
    {
      "constant": true,
      "inputs": [],
      "name": "getRound",
      "outputs": [
        {
          "name": "",
          "type": "uint256"
        }
      ],
      "payable": false,
      "stateMutability": "view",
      "type": "function"
    },
    {
      "constant": true,
      "inputs": [],
      "name": "getGameState",
      "outputs": [
        {
          "name": "",
          "type": "uint256"
        }
      ],
      "payable": false,
      "stateMutability": "view",
      "type": "function"
    },
    {
      "constant": false,
      "inputs": [],
      "name": "resetGame",
      "outputs": [],
      "payable": false,
      "stateMutability": "nonpayable",
      "type": "function"
    },
    {
      "constant": true,
      "inputs": [],
      "name": "birthBlock",
      "outputs": [
        {
          "name": "",
          "type": "uint256"
        }
      ],
      "payable": false,
      "stateMutability": "view",
      "type": "function"
    },
    {
      "constant": false,
      "inputs": [
        {
          "name": "hashedCommit",
          "type": "bytes32"
        }
      ],
      "name": "commit",
      "outputs": [],
      "payable": true,
      "stateMutability": "payable",
      "type": "function"
    },
    {
      "constant": false,
      "inputs": [
        {
          "name": "newOwner",
          "type": "address"
        }
      ],
      "name": "transferOwnership",
      "outputs": [],
      "payable": false,
      "stateMutability": "nonpayable",
      "type": "function"
    },
    {
      "constant": false,
      "inputs": [
        {
          "name": "new_stake",
          "type": "uint256"
        }
      ],
      "name": "setStakeSize",
      "outputs": [],
      "payable": false,
      "stateMutability": "nonpayable",
      "type": "function"
    },
    {
      "inputs": [
        {
          "name": "_feeAddress",
          "type": "address"
        },
        {
          "name": "_gameFeePercent",
          "type": "uint256"
        },
        {
          "name": "_stakeSize",
          "type": "uint256"
        },
        {
          "name": "_maxp",
          "type": "uint256"
        },
        {
          "name": "_gameStageLength",
          "type": "uint256"
        },
        {
          "name": "_nptAddress",
          "type": "address"
        }
      ],
      "payable": false,
      "stateMutability": "nonpayable",
      "type": "constructor"
    },
    {
      "anonymous": false,
      "inputs": [],
      "name": "CommitsSubmitted",
      "type": "event"
    },
    {
      "anonymous": false,
      "inputs": [],
      "name": "RevealsSubmitted",
      "type": "event"
    },
    {
      "anonymous": false,
      "inputs": [],
      "name": "NewRoundStarted",
      "type": "event"
    },
    {
      "anonymous": false,
      "inputs": [],
      "name": "Pause",
      "type": "event"
    },
    {
      "anonymous": false,
      "inputs": [],
      "name": "Unpause",
      "type": "event"
    },
    {
      "anonymous": false,
      "inputs": [
        {
          "indexed": true,
          "name": "previousOwner",
          "type": "address"
        }
      ],
      "name": "OwnershipRenounced",
      "type": "event"
    },
    {
      "anonymous": false,
      "inputs": [
        {
          "indexed": true,
          "name": "previousOwner",
          "type": "address"
        },
        {
          "indexed": true,
          "name": "newOwner",
          "type": "address"
        }
      ],
      "name": "OwnershipTransferred",
      "type": "event"
    }
  ],
  "bytecode": "0x608060405260008060146101000a81548160ff021916908315150217905550436001553480156200002f57600080fd5b5060405160c08062002f19833981018060405281019080805190602001909291908051906020019092919080519060200190929190805190602001909291908051906020019092919080519060200190929190505050858585858585336000806101000a81548173ffffffffffffffffffffffffffffffffffffffff021916908373ffffffffffffffffffffffffffffffffffffffff160217905550336000806101000a81548173ffffffffffffffffffffffffffffffffffffffff021916908373ffffffffffffffffffffffffffffffffffffffff16021790555081600260030181905550846002600101819055508260026004018190555083600280018190555085600260000160006101000a81548173ffffffffffffffffffffffffffffffffffffffff021916908373ffffffffffffffffffffffffffffffffffffffff16021790555080600260050160006101000a81548173ffffffffffffffffffffffffffffffffffffffff021916908373ffffffffffffffffffffffffffffffffffffffff1602179055506000600860000160006101000a81548160ff02191690836002811115620001dd57fe5b02179055506000600860020181905550600060086003018190555062000222600260030154600019620003f66401000000000262002804179091906401000000009004565b60086004018190555062000255600260030154600019620003f66401000000000262002804179091906401000000009004565b6008600501819055506000600f6003018190555082604051908082528060200260200182016040528015620002995781602001602082028038833980820191505090505b5060149080519060200190620002b192919062000410565b5082604051908082528060200260200182016040528015620002e25781602001602082028038833980820191505090505b5060169080519060200190620002fa92919062000410565b50826040519080825280602002602001820160405280156200032b5781602001602082028038833980820191505090505b50600f60000190805190602001906200034692919062000410565b506020604051908101604052806000815250600f6002019080519060200190620003729291906200049f565b506000600f60010181905550600260050160009054906101000a900473ffffffffffffffffffffffffffffffffffffffff16601760006101000a81548173ffffffffffffffffffffffffffffffffffffffff021916908373ffffffffffffffffffffffffffffffffffffffff16021790555050505050505050505050505062000594565b60008282111515156200040557fe5b818303905092915050565b8280548282559060005260206000209081019282156200048c579160200282015b828111156200048b5782518260006101000a81548173ffffffffffffffffffffffffffffffffffffffff021916908373ffffffffffffffffffffffffffffffffffffffff1602179055509160200191906001019062000431565b5b5090506200049b919062000526565b5090565b828054600181600116156101000203166002900490600052602060002090601f016020900481019282601f10620004e257805160ff191683800117855562000513565b8280016001018555821562000513579182015b8281111562000512578251825591602001919060010190620004f5565b5b5090506200052291906200056c565b5090565b6200056991905b808211156200056557600081816101000a81549073ffffffffffffffffffffffffffffffffffffffff0219169055506001016200052d565b5090565b90565b6200059191905b808211156200058d57600081600090555060010162000573565b5090565b90565b61297580620005a46000396000f300608060405260043610610196576000357c0100000000000000000000000000000000000000000000000000000000900463ffffffff1680630cfa61311461019b5780630d7099ea146101c6578063288dee3b146101f157806329bb80a01461021e578063349570d5146102da5780633e62aa72146103055780633f4ba83a146103305780635086f330146103475780635ba1b2c7146103955780635bba88f1146104445780635c975abb1461046f57806363bd1d4a1461049e5780636764f6fb146104b55780636cb9a39014610522578063715018a61461054d578063760704c11461056457806376cc4b7e1461057b5780637b43a8e6146105a65780638456cb591461060557806386b2b9861461061c5780638cbd9eb8146106335780638da5cb5b1461065e5780638e33cffc146106b55780639319c556146106e05780639ebefb68146107705780639f8743f71461079b578063b7d0628b146107c6578063bb472219146107f1578063bba4b31e14610808578063f14fcbc814610833578063f2fde38b14610857578063f3b9204e1461089a575b600080fd5b3480156101a757600080fd5b506101b06108c7565b6040518082815260200191505060405180910390f35b3480156101d257600080fd5b506101db6108d4565b6040518082815260200191505060405180910390f35b3480156101fd57600080fd5b5061021c600480360381019080803590602001909291905050506108e1565b005b34801561022a57600080fd5b5061025f600480360381019080803573ffffffffffffffffffffffffffffffffffffffff169060200190929190505050610949565b6040518080602001828103825283818151815260200191508051906020019080838360005b8381101561029f578082015181840152602081019050610284565b50505050905090810190601f1680156102cc5780820380516001836020036101000a031916815260200191505b509250505060405180910390f35b3480156102e657600080fd5b506102ef6109f9565b6040518082815260200191505060405180910390f35b34801561031157600080fd5b5061031a610a06565b6040518082815260200191505060405180910390f35b34801561033c57600080fd5b50610345610a13565b005b34801561035357600080fd5b5061035c610ad1565b60405180878152602001868152602001858152602001848152602001838152602001828152602001965050505050505060405180910390f35b3480156103a157600080fd5b50610442600480360381019080803590602001908201803590602001908080601f0160208091040260200160405190810160405280939291908181526020018383808284378201915050505050509192919290803590602001908201803590602001908080601f0160208091040260200160405190810160405280939291908181526020018383808284378201915050505050509192919290505050610b12565b005b34801561045057600080fd5b50610459610e1b565b6040518082815260200191505060405180910390f35b34801561047b57600080fd5b50610484610e28565b604051808215151515815260200191505060405180910390f35b3480156104aa57600080fd5b506104b3610e3b565b005b3480156104c157600080fd5b506104e060048036038101908080359060200190929190505050610efa565b604051808273ffffffffffffffffffffffffffffffffffffffff1673ffffffffffffffffffffffffffffffffffffffff16815260200191505060405180910390f35b34801561052e57600080fd5b50610537610f53565b6040518082815260200191505060405180910390f35b34801561055957600080fd5b50610562610f60565b005b34801561057057600080fd5b50610579611062565b005b34801561058757600080fd5b50610590611135565b6040518082815260200191505060405180910390f35b3480156105b257600080fd5b506105e7600480360381019080803573ffffffffffffffffffffffffffffffffffffffff169060200190929190505050611141565b60405180826000191660001916815260200191505060405180910390f35b34801561061157600080fd5b5061061a611159565b005b34801561062857600080fd5b50610631611219565b005b34801561063f57600080fd5b506106486112ec565b6040518082815260200191505060405180910390f35b34801561066a57600080fd5b506106736112f9565b604051808273ffffffffffffffffffffffffffffffffffffffff1673ffffffffffffffffffffffffffffffffffffffff16815260200191505060405180910390f35b3480156106c157600080fd5b506106ca61131e565b6040518082815260200191505060405180910390f35b3480156106ec57600080fd5b506106f561132b565b6040518080602001828103825283818151815260200191508051906020019080838360005b8381101561073557808201518184015260208101905061071a565b50505050905090810190601f1680156107625780820380516001836020036101000a031916815260200191505b509250505060405180910390f35b34801561077c57600080fd5b506107856113d0565b6040518082815260200191505060405180910390f35b3480156107a757600080fd5b506107b06113dd565b6040518082815260200191505060405180910390f35b3480156107d257600080fd5b506107db6113ea565b6040518082815260200191505060405180910390f35b3480156107fd57600080fd5b506108066113f7565b005b34801561081457600080fd5b5061081d6114fa565b6040518082815260200191505060405180910390f35b6108556004803603810190808035600019169060200190929190505050611500565b005b34801561086357600080fd5b50610898600480360381019080803573ffffffffffffffffffffffffffffffffffffffff1690602001909291905050506117be565b005b3480156108a657600080fd5b506108c560048036038101908080359060200190929190505050611913565b005b6000600f60030154905090565b6000600860020154905090565b6000809054906101000a900473ffffffffffffffffffffffffffffffffffffffff1673ffffffffffffffffffffffffffffffffffffffff163373ffffffffffffffffffffffffffffffffffffffff1614151561093c57600080fd5b8060026004018190555050565b60156020528060005260406000206000915090508054600181600116156101000203166002900480601f0160208091040260200160405190810160405280929190818152602001828054600181600116156101000203166002900480156109f15780601f106109c6576101008083540402835291602001916109f1565b820191906000526020600020905b8154815290600101906020018083116109d457829003601f168201915b505050505081565b6000600260030154905090565b6000600860030154905090565b6000809054906101000a900473ffffffffffffffffffffffffffffffffffffffff1673ffffffffffffffffffffffffffffffffffffffff163373ffffffffffffffffffffffffffffffffffffffff16141515610a6e57600080fd5b600060149054906101000a900460ff161515610a8957600080fd5b60008060146101000a81548160ff0219169083151502179055507f7805862f689e2f13df9f062ff482ad3ad112aca9e0847911ed832e158c525b3360405160405180910390a1565b600080600080600080600860010154600860020154600860030154600860040154600860050154600260030154955095509550955095509550909192939495565b600060149054906101000a900460ff16151515610b2e57600080fd5b60016002811115610b3b57fe5b600860000160009054906101000a900460ff166002811115610b5957fe5b141515610b6557600080fd5b610b6e8261197a565b81816040516020018083805190602001908083835b602083101515610ba85780518252602082019150602081019050602083039250610b83565b6001836020036101000a03801982511681845116808217855250505050505090500182805190602001908083835b602083101515610bfb5780518252602082019150602081019050602083039250610bd6565b6001836020036101000a038019825116818451168082178552505050505050905001925050506040516020818303038152906040526040518082805190602001908083835b602083101515610c655780518252602082019150602081019050602083039250610c40565b6001836020036101000a038019825116818451168082178552505050505050905001915050604051809103902060001916601360003373ffffffffffffffffffffffffffffffffffffffff1673ffffffffffffffffffffffffffffffffffffffff1681526020019081526020016000205460001916141515610ce657600080fd5b601360003373ffffffffffffffffffffffffffffffffffffffff1673ffffffffffffffffffffffffffffffffffffffff1681526020019081526020016000206000905581601560003373ffffffffffffffffffffffffffffffffffffffff1673ffffffffffffffffffffffffffffffffffffffff1681526020019081526020016000209080519060200190610d7c92919061281d565b50336016600860030154815481101515610d9257fe5b9060005260206000200160006101000a81548173ffffffffffffffffffffffffffffffffffffffff021916908373ffffffffffffffffffffffffffffffffffffffff160217905550610df360016008600301546119d090919063ffffffff16565b6008600301819055506002600401546008600301541415610e1757610e166119ec565b5b5050565b6000600260010154905090565b600060149054906101000a900460ff1681565b6000809054906101000a900473ffffffffffffffffffffffffffffffffffffffff1673ffffffffffffffffffffffffffffffffffffffff163373ffffffffffffffffffffffffffffffffffffffff16141515610e9657600080fd5b600060149054906101000a900460ff16151515610eb257600080fd5b600280811115610ebe57fe5b600860000160009054906101000a900460ff166002811115610edc57fe5b141515610ee857600080fd5b610ef0611a4c565b610ef861228b565b565b6000600f6001015482101515610f0f57600080fd5b600f60000182815481101515610f2157fe5b9060005260206000200160009054906101000a900473ffffffffffffffffffffffffffffffffffffffff169050919050565b6000600860040154905090565b6000809054906101000a900473ffffffffffffffffffffffffffffffffffffffff1673ffffffffffffffffffffffffffffffffffffffff163373ffffffffffffffffffffffffffffffffffffffff16141515610fbb57600080fd5b6000809054906101000a900473ffffffffffffffffffffffffffffffffffffffff1673ffffffffffffffffffffffffffffffffffffffff167ff8df31144d9c2f0f6b59d69b8b98abd5459d07f2742c4df920b25aae33c6482060405160405180910390a260008060006101000a81548173ffffffffffffffffffffffffffffffffffffffff021916908373ffffffffffffffffffffffffffffffffffffffff160217905550565b6000809054906101000a900473ffffffffffffffffffffffffffffffffffffffff1673ffffffffffffffffffffffffffffffffffffffff163373ffffffffffffffffffffffffffffffffffffffff161415156110bd57600080fd5b600060149054906101000a900460ff161515156110d957600080fd5b600160028111156110e657fe5b600860000160009054906101000a900460ff16600281111561110457fe5b14151561111057600080fd5b43600260030154600860050154011115151561112b57600080fd5b6111336119ec565b565b60006002800154905090565b60136020528060005260406000206000915090505481565b6000809054906101000a900473ffffffffffffffffffffffffffffffffffffffff1673ffffffffffffffffffffffffffffffffffffffff163373ffffffffffffffffffffffffffffffffffffffff161415156111b457600080fd5b600060149054906101000a900460ff161515156111d057600080fd5b6001600060146101000a81548160ff0219169083151502179055507f6985a02210a168e66602d3235cb6db0e70f92b3ba4d376a33c0f3d9434bff62560405160405180910390a1565b6000809054906101000a900473ffffffffffffffffffffffffffffffffffffffff1673ffffffffffffffffffffffffffffffffffffffff163373ffffffffffffffffffffffffffffffffffffffff1614151561127457600080fd5b600060149054906101000a900460ff1615151561129057600080fd5b6000600281111561129d57fe5b600860000160009054906101000a900460ff1660028111156112bb57fe5b1415156112c757600080fd5b4360026003015460086004015401111515156112e257600080fd5b6112ea6123f9565b565b6000600260040154905090565b6000809054906101000a900473ffffffffffffffffffffffffffffffffffffffff1681565b6000600f60010154905090565b6060600f6002018054600181600116156101000203166002900480601f0160208091040260200160405190810160405280929190818152602001828054600181600116156101000203166002900480156113c65780601f1061139b576101008083540402835291602001916113c6565b820191906000526020600020905b8154815290600101906020018083116113a957829003601f168201915b5050505050905090565b6000600860050154905090565b6000600860060154905090565b6000600860010154905090565b60008060009054906101000a900473ffffffffffffffffffffffffffffffffffffffff1673ffffffffffffffffffffffffffffffffffffffff163373ffffffffffffffffffffffffffffffffffffffff1614151561145457600080fd5b600060149054906101000a900460ff1615151561147057600080fd5b61147861228b565b6000600f60030181905550600090505b600f600101548110156114e157600f600001818154811015156114a757fe5b9060005260206000200160006101000a81549073ffffffffffffffffffffffffffffffffffffffff02191690558080600101915050611488565b6000600f60010181905550600060086006018190555050565b60015481565b600060149054906101000a900460ff1615151561151c57600080fd5b6000600281111561152957fe5b600860000160009054906101000a900460ff16600281111561154757fe5b14151561155357600080fd5b60028001543414151561156557600080fd5b600060010260001916601360003373ffffffffffffffffffffffffffffffffffffffff1673ffffffffffffffffffffffffffffffffffffffff16815260200190815260200160002054600019161415156115be57600080fd5b80601360003373ffffffffffffffffffffffffffffffffffffffff1673ffffffffffffffffffffffffffffffffffffffff168152602001908152602001600020816000191690555033601460086002015481548110151561161b57fe5b9060005260206000200160006101000a81548173ffffffffffffffffffffffffffffffffffffffff021916908373ffffffffffffffffffffffffffffffffffffffff16021790555061167c60016008600201546119d090919063ffffffff16565b600860020181905550601760009054906101000a900473ffffffffffffffffffffffffffffffffffffffff1673ffffffffffffffffffffffffffffffffffffffff166340c10f1933600a6040518363ffffffff167c0100000000000000000000000000000000000000000000000000000000028152600401808373ffffffffffffffffffffffffffffffffffffffff1673ffffffffffffffffffffffffffffffffffffffff16815260200182815260200192505050602060405180830381600087803b15801561174b57600080fd5b505af115801561175f573d6000803e3d6000fd5b505050506040513d602081101561177557600080fd5b810190808051906020019092919050505050600160086002015414156117a057436008600401819055505b60026004015460086002015414156117bb576117ba6123f9565b5b50565b6000809054906101000a900473ffffffffffffffffffffffffffffffffffffffff1673ffffffffffffffffffffffffffffffffffffffff163373ffffffffffffffffffffffffffffffffffffffff1614151561181957600080fd5b600073ffffffffffffffffffffffffffffffffffffffff168173ffffffffffffffffffffffffffffffffffffffff161415151561185557600080fd5b8073ffffffffffffffffffffffffffffffffffffffff166000809054906101000a900473ffffffffffffffffffffffffffffffffffffffff1673ffffffffffffffffffffffffffffffffffffffff167f8be0079c531659141344cd1fd0a4f28419497f9722a3daafe3b4186f6b6457e060405160405180910390a3806000806101000a81548173ffffffffffffffffffffffffffffffffffffffff021916908373ffffffffffffffffffffffffffffffffffffffff16021790555050565b6000809054906101000a900473ffffffffffffffffffffffffffffffffffffffff1673ffffffffffffffffffffffffffffffffffffffff163373ffffffffffffffffffffffffffffffffffffffff1614151561196e57600080fd5b80600280018190555050565b600061198582612463565b90506000600281111561199457fe5b8114806119ac5750600160028111156119a957fe5b81145b806119c157506002808111156119be57fe5b81145b15156119cc57600080fd5b5050565b600081830190508281101515156119e357fe5b80905092915050565b6002600860000160006101000a81548160ff02191690836002811115611a0e57fe5b021790555060026008600101819055507f249eb5abee408afd11bfd7a0449ece5a765def88489dd844882a500f87280a2460405160405180910390a1565b6060600080600080600260040154604051908082528060200260200182016040528015611a885781602001602082028038833980820191505090505b50945060009350600260040154600860030154148015611aac575060028060040154145b1561224357611bcb6015600060166000815481101515611ac857fe5b9060005260206000200160009054906101000a900473ffffffffffffffffffffffffffffffffffffffff1673ffffffffffffffffffffffffffffffffffffffff1673ffffffffffffffffffffffffffffffffffffffff1681526020019081526020016000208054600181600116156101000203166002900480601f016020809104026020016040519081016040528092919081815260200182805460018160011615610100020316600290048015611bc15780601f10611b9657610100808354040283529160200191611bc1565b820191906000526020600020905b815481529060010190602001808311611ba457829003601f168201915b5050505050612463565b9250611ce76015600060166001815481101515611be457fe5b9060005260206000200160009054906101000a900473ffffffffffffffffffffffffffffffffffffffff1673ffffffffffffffffffffffffffffffffffffffff1673ffffffffffffffffffffffffffffffffffffffff1681526020019081526020016000208054600181600116156101000203166002900480601f016020809104026020016040519081016040528092919081815260200182805460018160011615610100020316600290048015611cdd5780601f10611cb257610100808354040283529160200191611cdd565b820191906000526020600020905b815481529060010190602001808311611cc057829003601f168201915b5050505050612463565b915081831415611e025760166000815481101515611d0157fe5b9060005260206000200160009054906101000a900473ffffffffffffffffffffffffffffffffffffffff16856000815181101515611d3b57fe5b9060200190602002019073ffffffffffffffffffffffffffffffffffffffff16908173ffffffffffffffffffffffffffffffffffffffff168152505060166001815481101515611d8757fe5b9060005260206000200160009054906101000a900473ffffffffffffffffffffffffffffffffffffffff16856001815181101515611dc157fe5b9060200190602002019073ffffffffffffffffffffffffffffffffffffffff16908173ffffffffffffffffffffffffffffffffffffffff1681525050600293505b60006002811115611e0f57fe5b83148015611e28575060016002811115611e2557fe5b82145b15611eb85760166001815481101515611e3d57fe5b9060005260206000200160009054906101000a900473ffffffffffffffffffffffffffffffffffffffff16856000815181101515611e7757fe5b9060200190602002019073ffffffffffffffffffffffffffffffffffffffff16908173ffffffffffffffffffffffffffffffffffffffff1681525050600193505b60006002811115611ec557fe5b83148015611edd5750600280811115611eda57fe5b82145b15611f6d5760166000815481101515611ef257fe5b9060005260206000200160009054906101000a900473ffffffffffffffffffffffffffffffffffffffff16856000815181101515611f2c57fe5b9060200190602002019073ffffffffffffffffffffffffffffffffffffffff16908173ffffffffffffffffffffffffffffffffffffffff1681525050600193505b60016002811115611f7a57fe5b83148015611f93575060006002811115611f9057fe5b82145b156120235760166000815481101515611fa857fe5b9060005260206000200160009054906101000a900473ffffffffffffffffffffffffffffffffffffffff16856000815181101515611fe257fe5b9060200190602002019073ffffffffffffffffffffffffffffffffffffffff16908173ffffffffffffffffffffffffffffffffffffffff1681525050600193505b6001600281111561203057fe5b83148015612048575060028081111561204557fe5b82145b156120d8576016600181548110151561205d57fe5b9060005260206000200160009054906101000a900473ffffffffffffffffffffffffffffffffffffffff1685600081518110151561209757fe5b9060200190602002019073ffffffffffffffffffffffffffffffffffffffff16908173ffffffffffffffffffffffffffffffffffffffff1681525050600193505b6002808111156120e457fe5b831480156120fd5750600060028111156120fa57fe5b82145b1561218d576016600181548110151561211257fe5b9060005260206000200160009054906101000a900473ffffffffffffffffffffffffffffffffffffffff1685600081518110151561214c57fe5b9060200190602002019073ffffffffffffffffffffffffffffffffffffffff16908173ffffffffffffffffffffffffffffffffffffffff1681525050600193505b60028081111561219957fe5b831480156121b25750600160028111156121af57fe5b82145b1561224257601660008154811015156121c757fe5b9060005260206000200160009054906101000a900473ffffffffffffffffffffffffffffffffffffffff1685600081518110151561220157fe5b9060200190602002019073ffffffffffffffffffffffffffffffffffffffff16908173ffffffffffffffffffffffffffffffffffffffff1681525050600193505b5b600084111561228457612276843073ffffffffffffffffffffffffffffffffffffffff163161266d90919063ffffffff16565b9050612283858583612683565b5b5050505050565b600080600860000160006101000a81548160ff021916908360028111156122ae57fe5b02179055506000600860010181905550600860060160008154809291906001019190505550600090505b60086002015481101561236e57601360006014838154811015156122f857fe5b9060005260206000200160009054906101000a900473ffffffffffffffffffffffffffffffffffffffff1673ffffffffffffffffffffffffffffffffffffffff1673ffffffffffffffffffffffffffffffffffffffff1681526020019081526020016000206000905580806001019150506122d8565b6000600860020181905550600060086003018190555061239e60026003015460001961280490919063ffffffff16565b6008600401819055506123c160026003015460001961280490919063ffffffff16565b6008600501819055507fc80d42c5999c8ad689a434b47a3eecdc54fa3b27a31b49cb02b8c5075929fecc60405160405180910390a150565b6001600860000160006101000a81548160ff0219169083600281111561241b57fe5b02179055506001600860010181905550436008600501819055507f69c81b49bf12351dbabf91faefefa2b2ee324d944cd6a8b3b8416ade0232666460405160405180910390a1565b6000606060008084925060009150600090505b82518110156126625760307f01000000000000000000000000000000000000000000000000000000000000000283828151811015156124b157fe5b9060200101517f010000000000000000000000000000000000000000000000000000000000000090047f0100000000000000000000000000000000000000000000000000000000000000027effffffffffffffffffffffffffffffffffffffffffffffffffffffffffffff1916101580156125c9575060397f010000000000000000000000000000000000000000000000000000000000000002838281518110151561255957fe5b9060200101517f010000000000000000000000000000000000000000000000000000000000000090047f0100000000000000000000000000000000000000000000000000000000000000027effffffffffffffffffffffffffffffffffffffffffffffffffffffffffffff191611155b1561265557603083828151811015156125de57fe5b9060200101517f010000000000000000000000000000000000000000000000000000000000000090047f0100000000000000000000000000000000000000000000000000000000000000027f0100000000000000000000000000000000000000000000000000000000000000900403600a83020191505b8080600101915050612476565b819350505050919050565b6000818381151561267a57fe5b04905092915050565b600082600f60010181905550600090505b828110156127f45783818151811015156126aa57fe5b9060200190602002015173ffffffffffffffffffffffffffffffffffffffff166108fc839081150290604051600060405180830381858888f193505050501580156126f9573d6000803e3d6000fd5b50838181518110151561270857fe5b90602001906020020151600f6000018281548110151561272457fe5b9060005260206000200160006101000a81548173ffffffffffffffffffffffffffffffffffffffff021916908373ffffffffffffffffffffffffffffffffffffffff16021790555060156000858381518110151561277e57fe5b9060200190602002015173ffffffffffffffffffffffffffffffffffffffff1673ffffffffffffffffffffffffffffffffffffffff168152602001908152602001600020600f60020190805460018160011615610100020316600290046127e692919061289d565b508080600101915050612694565b81600f6003018190555050505050565b600082821115151561281257fe5b818303905092915050565b828054600181600116156101000203166002900490600052602060002090601f016020900481019282601f1061285e57805160ff191683800117855561288c565b8280016001018555821561288c579182015b8281111561288b578251825591602001919060010190612870565b5b5090506128999190612924565b5090565b828054600181600116156101000203166002900490600052602060002090601f016020900481019282601f106128d65780548555612913565b8280016001018555821561291357600052602060002091601f016020900482015b828111156129125782548255916001019190600101906128f7565b5b5090506129209190612924565b5090565b61294691905b8082111561294257600081600090555060010161292a565b5090565b905600a165627a7a723058204d191bc2ac443b0811e4844da3bb3a06a1241ffa801adf7d4c14b8a0234edec90029",
  "source": "pragma solidity ^0.4.23;\n\nimport \"./Game.sol\";\n\ncontract RPS is Game {\n    \n  enum playState {ROCK, PAPER, SCISSOR} // ROCK = 0, PAPER = 1, SCISSOR = 2\n    \n  constructor(\n        address _feeAddress,\n        uint256 _gameFeePercent,\n        uint256 _stakeSize,\n        uint256 _maxp,\n        uint256 _gameStageLength,\n        address _nptAddress // 0x805cdcf68cc12220f89425be89daa44dbc83ff30\n        )\n        public Game(_feeAddress, _gameFeePercent, _stakeSize, _maxp, _gameStageLength, _nptAddress) {\n  } \n  \n  // function commit(bytes32 hashedCommit)\n  // function reveal(string, string)\n  \n  function checkGuess(string guess) private {\n    uint n = stringToUint(guess);\n    require(n == uint(playState.ROCK) || n == uint(playState.PAPER) || n == uint(playState.SCISSOR));\n  }\n  \n  function findWinners() private {\n      \n      address[] memory winners = new address[](config.MAX_PLAYERS);\n      uint numWinners = 0;\n      \n      \n      if(state.currNumberReveals == config.MAX_PLAYERS && config.MAX_PLAYERS == 2){\n          \n          uint play0 = stringToUint(gameData[gameDataKeys[0]]);\n          uint play1 = stringToUint(gameData[gameDataKeys[1]]);\n          \n          if(play0 == play1){\n              // we have a tie, regardless of what the individual players played\n              winners[0] = gameDataKeys[0]; winners[1] = gameDataKeys[1];\n              numWinners = 2;\n          }\n          \n          if(play0 == uint(playState.ROCK) && play1 == uint(playState.PAPER)){\n              winners[0] = gameDataKeys[1];\n              numWinners = 1;\n          }\n          \n          if(play0 == uint(playState.ROCK) && play1 == uint(playState.SCISSOR)){\n              winners[0] = gameDataKeys[0];\n              numWinners = 1;\n          }\n          \n          if(play0 == uint(playState.PAPER) && play1 == uint(playState.ROCK)){\n              winners[0] = gameDataKeys[0];\n              numWinners = 1;\n          }\n          \n          if(play0 == uint(playState.PAPER) && play1 == uint(playState.SCISSOR)){\n              winners[0] = gameDataKeys[1];\n              numWinners = 1;\n          }\n          \n          if(play0 == uint(playState.SCISSOR) && play1 == uint(playState.ROCK)){\n              winners[0] = gameDataKeys[1];\n              numWinners = 1;\n          }\n          \n          if(play0 == uint(playState.SCISSOR) && play1 == uint(playState.PAPER)){\n              winners[0] = gameDataKeys[0];\n              numWinners = 1;\n          }\n          \n      }\n      \n      if(numWinners > 0){\n        uint reward = address(this).balance.div(numWinners);\n        performPayout(winners, numWinners, reward);\n      }\n      \n  }\n    \n}",
  "sourcePath": "/Users/gitprooriginmaster/devel/purescript-playground/contracts/RPS.sol",
  "compiler": {
    "name": "solc",
    "version": "0.4.24+commit.e67f0147.Emscripten.clang"
  },
  "schemaVersion": "2.0.1",
  "updatedAt": "2018-08-09T16:49:40.433Z"
}