{
  "contractName": "TwoThirdsAverage",
  "abi": [
    {
      "constant": true,
      "inputs": [],
      "name": "getLastPrize",
      "outputs": [
        {
          "name": "",
          "type": "uint256"
        }
      ],
      "payable": false,
      "stateMutability": "view",
      "type": "function"
    },
    {
      "constant": true,
      "inputs": [],
      "name": "getCurrentCommits",
      "outputs": [
        {
          "name": "",
          "type": "uint256"
        }
      ],
      "payable": false,
      "stateMutability": "view",
      "type": "function"
    },
    {
      "constant": false,
      "inputs": [
        {
          "name": "new_max",
          "type": "uint256"
        }
      ],
      "name": "setMaxPlayers",
      "outputs": [],
      "payable": false,
      "stateMutability": "nonpayable",
      "type": "function"
    },
    {
      "constant": true,
      "inputs": [
        {
          "name": "",
          "type": "address"
        }
      ],
      "name": "gameData",
      "outputs": [
        {
          "name": "",
          "type": "string"
        }
      ],
      "payable": false,
      "stateMutability": "view",
      "type": "function"
    },
    {
      "constant": true,
      "inputs": [],
      "name": "getGameStageLength",
      "outputs": [
        {
          "name": "",
          "type": "uint256"
        }
      ],
      "payable": false,
      "stateMutability": "view",
      "type": "function"
    },
    {
      "constant": true,
      "inputs": [],
      "name": "getCurrentReveals",
      "outputs": [
        {
          "name": "",
          "type": "uint256"
        }
      ],
      "payable": false,
      "stateMutability": "view",
      "type": "function"
    },
    {
      "constant": false,
      "inputs": [],
      "name": "unpause",
      "outputs": [],
      "payable": false,
      "stateMutability": "nonpayable",
      "type": "function"
    },
    {
      "constant": true,
      "inputs": [],
      "name": "getGameStateInfo",
      "outputs": [
        {
          "name": "_state",
          "type": "uint256"
        },
        {
          "name": "_currNumberCommits",
          "type": "uint256"
        },
        {
          "name": "_currNumberReveals",
          "type": "uint256"
        },
        {
          "name": "_commitStageStartBlock",
          "type": "uint256"
        },
        {
          "name": "_revealStageStartBlock",
          "type": "uint256"
        },
        {
          "name": "_stageLength",
          "type": "uint256"
        }
      ],
      "payable": false,
      "stateMutability": "view",
      "type": "function"
    },
    {
      "constant": true,
      "inputs": [],
      "name": "rules",
      "outputs": [
        {
          "name": "MIN_GUESS",
          "type": "uint256"
        },
        {
          "name": "MAX_GUESS",
          "type": "uint256"
        }
      ],
      "payable": false,
      "stateMutability": "view",
      "type": "function"
    },
    {
      "constant": false,
      "inputs": [
        {
          "name": "guess",
          "type": "string"
        },
        {
          "name": "random",
          "type": "string"
        }
      ],
      "name": "reveal",
      "outputs": [],
      "payable": false,
      "stateMutability": "nonpayable",
      "type": "function"
    },
    {
      "constant": true,
      "inputs": [],
      "name": "getGameFee",
      "outputs": [
        {
          "name": "",
          "type": "uint256"
        }
      ],
      "payable": false,
      "stateMutability": "view",
      "type": "function"
    },
    {
      "constant": true,
      "inputs": [],
      "name": "paused",
      "outputs": [
        {
          "name": "",
          "type": "bool"
        }
      ],
      "payable": false,
      "stateMutability": "view",
      "type": "function"
    },
    {
      "constant": false,
      "inputs": [],
      "name": "payout",
      "outputs": [],
      "payable": false,
      "stateMutability": "nonpayable",
      "type": "function"
    },
    {
      "constant": true,
      "inputs": [
        {
          "name": "i",
          "type": "uint256"
        }
      ],
      "name": "getLastWinners",
      "outputs": [
        {
          "name": "",
          "type": "address"
        }
      ],
      "payable": false,
      "stateMutability": "view",
      "type": "function"
    },
    {
      "constant": true,
      "inputs": [],
      "name": "getCommitStageStartBlock",
      "outputs": [
        {
          "name": "",
          "type": "uint256"
        }
      ],
      "payable": false,
      "stateMutability": "view",
      "type": "function"
    },
    {
      "constant": true,
      "inputs": [],
      "name": "average23",
      "outputs": [
        {
          "name": "",
          "type": "uint256"
        }
      ],
      "payable": false,
      "stateMutability": "view",
      "type": "function"
    },
    {
      "constant": false,
      "inputs": [],
      "name": "renounceOwnership",
      "outputs": [],
      "payable": false,
      "stateMutability": "nonpayable",
      "type": "function"
    },
    {
      "constant": false,
      "inputs": [],
      "name": "forceToPayoutState",
      "outputs": [],
      "payable": false,
      "stateMutability": "nonpayable",
      "type": "function"
    },
    {
      "constant": true,
      "inputs": [],
      "name": "getStakeSize",
      "outputs": [
        {
          "name": "",
          "type": "uint256"
        }
      ],
      "payable": false,
      "stateMutability": "view",
      "type": "function"
    },
    {
      "constant": true,
      "inputs": [
        {
          "name": "",
          "type": "address"
        }
      ],
      "name": "commits",
      "outputs": [
        {
          "name": "",
          "type": "bytes32"
        }
      ],
      "payable": false,
      "stateMutability": "view",
      "type": "function"
    },
    {
      "constant": false,
      "inputs": [],
      "name": "pause",
      "outputs": [],
      "payable": false,
      "stateMutability": "nonpayable",
      "type": "function"
    },
    {
      "constant": false,
      "inputs": [],
      "name": "forceToRevealState",
      "outputs": [],
      "payable": false,
      "stateMutability": "nonpayable",
      "type": "function"
    },
    {
      "constant": true,
      "inputs": [],
      "name": "getMaxPlayers",
      "outputs": [
        {
          "name": "",
          "type": "uint256"
        }
      ],
      "payable": false,
      "stateMutability": "view",
      "type": "function"
    },
    {
      "constant": true,
      "inputs": [],
      "name": "owner",
      "outputs": [
        {
          "name": "",
          "type": "address"
        }
      ],
      "payable": false,
      "stateMutability": "view",
      "type": "function"
    },
    {
      "constant": true,
      "inputs": [],
      "name": "getNumberOfWinners",
      "outputs": [
        {
          "name": "",
          "type": "uint256"
        }
      ],
      "payable": false,
      "stateMutability": "view",
      "type": "function"
    },
    {
      "constant": true,
      "inputs": [],
      "name": "getLastWinningGuess",
      "outputs": [
        {
          "name": "",
          "type": "string"
        }
      ],
      "payable": false,
      "stateMutability": "view",
      "type": "function"
    },
    {
      "constant": true,
      "inputs": [],
      "name": "getRevealStageStartBlock",
      "outputs": [
        {
          "name": "",
          "type": "uint256"
        }
      ],
      "payable": false,
      "stateMutability": "view",
      "type": "function"
    },
    {
      "constant": true,
      "inputs": [],
      "name": "getRound",
      "outputs": [
        {
          "name": "",
          "type": "uint256"
        }
      ],
      "payable": false,
      "stateMutability": "view",
      "type": "function"
    },
    {
      "constant": true,
      "inputs": [],
      "name": "getGameState",
      "outputs": [
        {
          "name": "",
          "type": "uint256"
        }
      ],
      "payable": false,
      "stateMutability": "view",
      "type": "function"
    },
    {
      "constant": false,
      "inputs": [],
      "name": "resetGame",
      "outputs": [],
      "payable": false,
      "stateMutability": "nonpayable",
      "type": "function"
    },
    {
      "constant": true,
      "inputs": [],
      "name": "birthBlock",
      "outputs": [
        {
          "name": "",
          "type": "uint256"
        }
      ],
      "payable": false,
      "stateMutability": "view",
      "type": "function"
    },
    {
      "constant": false,
      "inputs": [
        {
          "name": "hashedCommit",
          "type": "bytes32"
        }
      ],
      "name": "commit",
      "outputs": [],
      "payable": true,
      "stateMutability": "payable",
      "type": "function"
    },
    {
      "constant": false,
      "inputs": [
        {
          "name": "newOwner",
          "type": "address"
        }
      ],
      "name": "transferOwnership",
      "outputs": [],
      "payable": false,
      "stateMutability": "nonpayable",
      "type": "function"
    },
    {
      "constant": false,
      "inputs": [
        {
          "name": "new_stake",
          "type": "uint256"
        }
      ],
      "name": "setStakeSize",
      "outputs": [],
      "payable": false,
      "stateMutability": "nonpayable",
      "type": "function"
    },
    {
      "inputs": [
        {
          "name": "_feeAddress",
          "type": "address"
        },
        {
          "name": "_gameFeePercent",
          "type": "uint256"
        },
        {
          "name": "_stakeSize",
          "type": "uint256"
        },
        {
          "name": "_maxp",
          "type": "uint256"
        },
        {
          "name": "_gameStageLength",
          "type": "uint256"
        },
        {
          "name": "_nptAddress",
          "type": "address"
        }
      ],
      "payable": false,
      "stateMutability": "nonpayable",
      "type": "constructor"
    },
    {
      "anonymous": false,
      "inputs": [],
      "name": "CommitsSubmitted",
      "type": "event"
    },
    {
      "anonymous": false,
      "inputs": [],
      "name": "RevealsSubmitted",
      "type": "event"
    },
    {
      "anonymous": false,
      "inputs": [],
      "name": "NewRoundStarted",
      "type": "event"
    },
    {
      "anonymous": false,
      "inputs": [],
      "name": "Pause",
      "type": "event"
    },
    {
      "anonymous": false,
      "inputs": [],
      "name": "Unpause",
      "type": "event"
    },
    {
      "anonymous": false,
      "inputs": [
        {
          "indexed": true,
          "name": "previousOwner",
          "type": "address"
        }
      ],
      "name": "OwnershipRenounced",
      "type": "event"
    },
    {
      "anonymous": false,
      "inputs": [
        {
          "indexed": true,
          "name": "previousOwner",
          "type": "address"
        },
        {
          "indexed": true,
          "name": "newOwner",
          "type": "address"
        }
      ],
      "name": "OwnershipTransferred",
      "type": "event"
    }
  ],
  "bytecode": "0x608060405260008060146101000a81548160ff021916908315150217905550436001556000601a553480156200003457600080fd5b5060405160c08062002e0d833981018060405281019080805190602001909291908051906020019092919080519060200190929190805190602001909291908051906020019092919080519060200190929190505050858585858585336000806101000a81548173ffffffffffffffffffffffffffffffffffffffff021916908373ffffffffffffffffffffffffffffffffffffffff160217905550336000806101000a81548173ffffffffffffffffffffffffffffffffffffffff021916908373ffffffffffffffffffffffffffffffffffffffff16021790555081600260030181905550846002600101819055508260026004018190555083600280018190555085600260000160006101000a81548173ffffffffffffffffffffffffffffffffffffffff021916908373ffffffffffffffffffffffffffffffffffffffff16021790555080600260050160006101000a81548173ffffffffffffffffffffffffffffffffffffffff021916908373ffffffffffffffffffffffffffffffffffffffff1602179055506000600860000160006101000a81548160ff02191690836002811115620001e257fe5b0217905550600060086002018190555060006008600301819055506200022760026003015460001962000411640100000000026200255c179091906401000000009004565b6008600401819055506200025a60026003015460001962000411640100000000026200255c179091906401000000009004565b6008600501819055506000600f60030181905550826040519080825280602002602001820160405280156200029e5781602001602082028038833980820191505090505b5060149080519060200190620002b69291906200042b565b5082604051908082528060200260200182016040528015620002e75781602001602082028038833980820191505090505b5060169080519060200190620002ff9291906200042b565b5082604051908082528060200260200182016040528015620003305781602001602082028038833980820191505090505b50600f60000190805190602001906200034b9291906200042b565b506020604051908101604052806000815250600f600201908051906020019062000377929190620004ba565b506000600f60010181905550600260050160009054906101000a900473ffffffffffffffffffffffffffffffffffffffff16601760006101000a81548173ffffffffffffffffffffffffffffffffffffffff021916908373ffffffffffffffffffffffffffffffffffffffff16021790555050505050505060006018600001819055506064601860010181905550505050505050620005af565b60008282111515156200042057fe5b818303905092915050565b828054828255906000526020600020908101928215620004a7579160200282015b82811115620004a65782518260006101000a81548173ffffffffffffffffffffffffffffffffffffffff021916908373ffffffffffffffffffffffffffffffffffffffff160217905550916020019190600101906200044c565b5b509050620004b6919062000541565b5090565b828054600181600116156101000203166002900490600052602060002090601f016020900481019282601f10620004fd57805160ff19168380011785556200052e565b828001600101855582156200052e579182015b828111156200052d57825182559160200191906001019062000510565b5b5090506200053d919062000587565b5090565b6200058491905b808211156200058057600081816101000a81549073ffffffffffffffffffffffffffffffffffffffff02191690555060010162000548565b5090565b90565b620005ac91905b80821115620005a85760008160009055506001016200058e565b5090565b90565b61284e80620005bf6000396000f3006080604052600436106101ac576000357c0100000000000000000000000000000000000000000000000000000000900463ffffffff1680630cfa6131146101b15780630d7099ea146101dc578063288dee3b1461020757806329bb80a014610234578063349570d5146102f05780633e62aa721461031b5780633f4ba83a146103465780635086f3301461035d57806352f6747a146103ab5780635ba1b2c7146103dd5780635bba88f11461048c5780635c975abb146104b757806363bd1d4a146104e65780636764f6fb146104fd5780636cb9a3901461056a5780636fdac36114610595578063715018a6146105c0578063760704c1146105d757806376cc4b7e146105ee5780637b43a8e6146106195780638456cb591461067857806386b2b9861461068f5780638cbd9eb8146106a65780638da5cb5b146106d15780638e33cffc146107285780639319c556146107535780639ebefb68146107e35780639f8743f71461080e578063b7d0628b14610839578063bb47221914610864578063bba4b31e1461087b578063f14fcbc8146108a6578063f2fde38b146108ca578063f3b9204e1461090d575b600080fd5b3480156101bd57600080fd5b506101c661093a565b6040518082815260200191505060405180910390f35b3480156101e857600080fd5b506101f1610947565b6040518082815260200191505060405180910390f35b34801561021357600080fd5b5061023260048036038101908080359060200190929190505050610954565b005b34801561024057600080fd5b50610275600480360381019080803573ffffffffffffffffffffffffffffffffffffffff1690602001909291905050506109bc565b6040518080602001828103825283818151815260200191508051906020019080838360005b838110156102b557808201518184015260208101905061029a565b50505050905090810190601f1680156102e25780820380516001836020036101000a031916815260200191505b509250505060405180910390f35b3480156102fc57600080fd5b50610305610a6c565b6040518082815260200191505060405180910390f35b34801561032757600080fd5b50610330610a79565b6040518082815260200191505060405180910390f35b34801561035257600080fd5b5061035b610a86565b005b34801561036957600080fd5b50610372610b44565b60405180878152602001868152602001858152602001848152602001838152602001828152602001965050505050505060405180910390f35b3480156103b757600080fd5b506103c0610b85565b604051808381526020018281526020019250505060405180910390f35b3480156103e957600080fd5b5061048a600480360381019080803590602001908201803590602001908080601f0160208091040260200160405190810160405280939291908181526020018383808284378201915050505050509192919290803590602001908201803590602001908080601f0160208091040260200160405190810160405280939291908181526020018383808284378201915050505050509192919290505050610b97565b005b34801561049857600080fd5b506104a1610ea0565b6040518082815260200191505060405180910390f35b3480156104c357600080fd5b506104cc610ead565b604051808215151515815260200191505060405180910390f35b3480156104f257600080fd5b506104fb610ec0565b005b34801561050957600080fd5b5061052860048036038101908080359060200190929190505050610f7f565b604051808273ffffffffffffffffffffffffffffffffffffffff1673ffffffffffffffffffffffffffffffffffffffff16815260200191505060405180910390f35b34801561057657600080fd5b5061057f610fd8565b6040518082815260200191505060405180910390f35b3480156105a157600080fd5b506105aa610fe5565b6040518082815260200191505060405180910390f35b3480156105cc57600080fd5b506105d5610feb565b005b3480156105e357600080fd5b506105ec6110ed565b005b3480156105fa57600080fd5b506106036111c0565b6040518082815260200191505060405180910390f35b34801561062557600080fd5b5061065a600480360381019080803573ffffffffffffffffffffffffffffffffffffffff1690602001909291905050506111cc565b60405180826000191660001916815260200191505060405180910390f35b34801561068457600080fd5b5061068d6111e4565b005b34801561069b57600080fd5b506106a46112a4565b005b3480156106b257600080fd5b506106bb611377565b6040518082815260200191505060405180910390f35b3480156106dd57600080fd5b506106e6611384565b604051808273ffffffffffffffffffffffffffffffffffffffff1673ffffffffffffffffffffffffffffffffffffffff16815260200191505060405180910390f35b34801561073457600080fd5b5061073d6113a9565b6040518082815260200191505060405180910390f35b34801561075f57600080fd5b506107686113b6565b6040518080602001828103825283818151815260200191508051906020019080838360005b838110156107a857808201518184015260208101905061078d565b50505050905090810190601f1680156107d55780820380516001836020036101000a031916815260200191505b509250505060405180910390f35b3480156107ef57600080fd5b506107f861145b565b6040518082815260200191505060405180910390f35b34801561081a57600080fd5b50610823611468565b6040518082815260200191505060405180910390f35b34801561084557600080fd5b5061084e611475565b6040518082815260200191505060405180910390f35b34801561087057600080fd5b50610879611482565b005b34801561088757600080fd5b50610890611585565b6040518082815260200191505060405180910390f35b6108c8600480360381019080803560001916906020019092919050505061158b565b005b3480156108d657600080fd5b5061090b600480360381019080803573ffffffffffffffffffffffffffffffffffffffff169060200190929190505050611849565b005b34801561091957600080fd5b506109386004803603810190808035906020019092919050505061199e565b005b6000600f60030154905090565b6000600860020154905090565b6000809054906101000a900473ffffffffffffffffffffffffffffffffffffffff1673ffffffffffffffffffffffffffffffffffffffff163373ffffffffffffffffffffffffffffffffffffffff161415156109af57600080fd5b8060026004018190555050565b60156020528060005260406000206000915090508054600181600116156101000203166002900480601f016020809104026020016040519081016040528092919081815260200182805460018160011615610100020316600290048015610a645780601f10610a3957610100808354040283529160200191610a64565b820191906000526020600020905b815481529060010190602001808311610a4757829003601f168201915b505050505081565b6000600260030154905090565b6000600860030154905090565b6000809054906101000a900473ffffffffffffffffffffffffffffffffffffffff1673ffffffffffffffffffffffffffffffffffffffff163373ffffffffffffffffffffffffffffffffffffffff16141515610ae157600080fd5b600060149054906101000a900460ff161515610afc57600080fd5b60008060146101000a81548160ff0219169083151502179055507f7805862f689e2f13df9f062ff482ad3ad112aca9e0847911ed832e158c525b3360405160405180910390a1565b600080600080600080600860010154600860020154600860030154600860040154600860050154600260030154955095509550955095509550909192939495565b60188060000154908060010154905082565b600060149054906101000a900460ff16151515610bb357600080fd5b60016002811115610bc057fe5b600860000160009054906101000a900460ff166002811115610bde57fe5b141515610bea57600080fd5b610bf382611a05565b81816040516020018083805190602001908083835b602083101515610c2d5780518252602082019150602081019050602083039250610c08565b6001836020036101000a03801982511681845116808217855250505050505090500182805190602001908083835b602083101515610c805780518252602082019150602081019050602083039250610c5b565b6001836020036101000a038019825116818451168082178552505050505050905001925050506040516020818303038152906040526040518082805190602001908083835b602083101515610cea5780518252602082019150602081019050602083039250610cc5565b6001836020036101000a038019825116818451168082178552505050505050905001915050604051809103902060001916601360003373ffffffffffffffffffffffffffffffffffffffff1673ffffffffffffffffffffffffffffffffffffffff1681526020019081526020016000205460001916141515610d6b57600080fd5b601360003373ffffffffffffffffffffffffffffffffffffffff1673ffffffffffffffffffffffffffffffffffffffff1681526020019081526020016000206000905581601560003373ffffffffffffffffffffffffffffffffffffffff1673ffffffffffffffffffffffffffffffffffffffff1681526020019081526020016000209080519060200190610e019291906126f6565b50336016600860030154815481101515610e1757fe5b9060005260206000200160006101000a81548173ffffffffffffffffffffffffffffffffffffffff021916908373ffffffffffffffffffffffffffffffffffffffff160217905550610e786001600860030154611a3b90919063ffffffff16565b6008600301819055506002600401546008600301541415610e9c57610e9b611a57565b5b5050565b6000600260010154905090565b600060149054906101000a900460ff1681565b6000809054906101000a900473ffffffffffffffffffffffffffffffffffffffff1673ffffffffffffffffffffffffffffffffffffffff163373ffffffffffffffffffffffffffffffffffffffff16141515610f1b57600080fd5b600060149054906101000a900460ff16151515610f3757600080fd5b600280811115610f4357fe5b600860000160009054906101000a900460ff166002811115610f6157fe5b141515610f6d57600080fd5b610f75611ab7565b610f7d61212c565b565b6000600f6001015482101515610f9457600080fd5b600f60000182815481101515610fa657fe5b9060005260206000200160009054906101000a900473ffffffffffffffffffffffffffffffffffffffff169050919050565b6000600860040154905090565b601a5481565b6000809054906101000a900473ffffffffffffffffffffffffffffffffffffffff1673ffffffffffffffffffffffffffffffffffffffff163373ffffffffffffffffffffffffffffffffffffffff1614151561104657600080fd5b6000809054906101000a900473ffffffffffffffffffffffffffffffffffffffff1673ffffffffffffffffffffffffffffffffffffffff167ff8df31144d9c2f0f6b59d69b8b98abd5459d07f2742c4df920b25aae33c6482060405160405180910390a260008060006101000a81548173ffffffffffffffffffffffffffffffffffffffff021916908373ffffffffffffffffffffffffffffffffffffffff160217905550565b6000809054906101000a900473ffffffffffffffffffffffffffffffffffffffff1673ffffffffffffffffffffffffffffffffffffffff163373ffffffffffffffffffffffffffffffffffffffff1614151561114857600080fd5b600060149054906101000a900460ff1615151561116457600080fd5b6001600281111561117157fe5b600860000160009054906101000a900460ff16600281111561118f57fe5b14151561119b57600080fd5b4360026003015460086005015401111515156111b657600080fd5b6111be611a57565b565b60006002800154905090565b60136020528060005260406000206000915090505481565b6000809054906101000a900473ffffffffffffffffffffffffffffffffffffffff1673ffffffffffffffffffffffffffffffffffffffff163373ffffffffffffffffffffffffffffffffffffffff1614151561123f57600080fd5b600060149054906101000a900460ff1615151561125b57600080fd5b6001600060146101000a81548160ff0219169083151502179055507f6985a02210a168e66602d3235cb6db0e70f92b3ba4d376a33c0f3d9434bff62560405160405180910390a1565b6000809054906101000a900473ffffffffffffffffffffffffffffffffffffffff1673ffffffffffffffffffffffffffffffffffffffff163373ffffffffffffffffffffffffffffffffffffffff161415156112ff57600080fd5b600060149054906101000a900460ff1615151561131b57600080fd5b6000600281111561132857fe5b600860000160009054906101000a900460ff16600281111561134657fe5b14151561135257600080fd5b43600260030154600860040154011115151561136d57600080fd5b61137561229a565b565b6000600260040154905090565b6000809054906101000a900473ffffffffffffffffffffffffffffffffffffffff1681565b6000600f60010154905090565b6060600f6002018054600181600116156101000203166002900480601f0160208091040260200160405190810160405280929190818152602001828054600181600116156101000203166002900480156114515780601f1061142657610100808354040283529160200191611451565b820191906000526020600020905b81548152906001019060200180831161143457829003601f168201915b5050505050905090565b6000600860050154905090565b6000600860060154905090565b6000600860010154905090565b60008060009054906101000a900473ffffffffffffffffffffffffffffffffffffffff1673ffffffffffffffffffffffffffffffffffffffff163373ffffffffffffffffffffffffffffffffffffffff161415156114df57600080fd5b600060149054906101000a900460ff161515156114fb57600080fd5b61150361212c565b6000600f60030181905550600090505b600f6001015481101561156c57600f6000018181548110151561153257fe5b9060005260206000200160006101000a81549073ffffffffffffffffffffffffffffffffffffffff02191690558080600101915050611513565b6000600f60010181905550600060086006018190555050565b60015481565b600060149054906101000a900460ff161515156115a757600080fd5b600060028111156115b457fe5b600860000160009054906101000a900460ff1660028111156115d257fe5b1415156115de57600080fd5b6002800154341415156115f057600080fd5b600060010260001916601360003373ffffffffffffffffffffffffffffffffffffffff1673ffffffffffffffffffffffffffffffffffffffff168152602001908152602001600020546000191614151561164957600080fd5b80601360003373ffffffffffffffffffffffffffffffffffffffff1673ffffffffffffffffffffffffffffffffffffffff16815260200190815260200160002081600019169055503360146008600201548154811015156116a657fe5b9060005260206000200160006101000a81548173ffffffffffffffffffffffffffffffffffffffff021916908373ffffffffffffffffffffffffffffffffffffffff1602179055506117076001600860020154611a3b90919063ffffffff16565b600860020181905550601760009054906101000a900473ffffffffffffffffffffffffffffffffffffffff1673ffffffffffffffffffffffffffffffffffffffff166340c10f1933600a6040518363ffffffff167c0100000000000000000000000000000000000000000000000000000000028152600401808373ffffffffffffffffffffffffffffffffffffffff1673ffffffffffffffffffffffffffffffffffffffff16815260200182815260200192505050602060405180830381600087803b1580156117d657600080fd5b505af11580156117ea573d6000803e3d6000fd5b505050506040513d602081101561180057600080fd5b8101908080519060200190929190505050506001600860020154141561182b57436008600401819055505b60026004015460086002015414156118465761184561229a565b5b50565b6000809054906101000a900473ffffffffffffffffffffffffffffffffffffffff1673ffffffffffffffffffffffffffffffffffffffff163373ffffffffffffffffffffffffffffffffffffffff161415156118a457600080fd5b600073ffffffffffffffffffffffffffffffffffffffff168173ffffffffffffffffffffffffffffffffffffffff16141515156118e057600080fd5b8073ffffffffffffffffffffffffffffffffffffffff166000809054906101000a900473ffffffffffffffffffffffffffffffffffffffff1673ffffffffffffffffffffffffffffffffffffffff167f8be0079c531659141344cd1fd0a4f28419497f9722a3daafe3b4186f6b6457e060405160405180910390a3806000806101000a81548173ffffffffffffffffffffffffffffffffffffffff021916908373ffffffffffffffffffffffffffffffffffffffff16021790555050565b6000809054906101000a900473ffffffffffffffffffffffffffffffffffffffff1673ffffffffffffffffffffffffffffffffffffffff163373ffffffffffffffffffffffffffffffffffffffff161415156119f957600080fd5b80600280018190555050565b6000611a1082612304565b90506018600001548110158015611a2c57506018600101548111155b1515611a3757600080fd5b5050565b60008183019050828110151515611a4e57fe5b80905092915050565b6002600860000160006101000a81548160ff02191690836002811115611a7957fe5b021790555060026008600101819055507f249eb5abee408afd11bfd7a0449ece5a765def88489dd844882a500f87280a2460405160405180910390a1565b6000806000806000606060008060008060008060009b5060009a505b6008600301548b1015611c1d57611bf96015600060168e815481101515611af657fe5b9060005260206000200160009054906101000a900473ffffffffffffffffffffffffffffffffffffffff1673ffffffffffffffffffffffffffffffffffffffff1673ffffffffffffffffffffffffffffffffffffffff1681526020019081526020016000208054600181600116156101000203166002900480601f016020809104026020016040519081016040528092919081815260200182805460018160011615610100020316600290048015611bef5780601f10611bc457610100808354040283529160200191611bef565b820191906000526020600020905b815481529060010190602001808311611bd257829003601f168201915b5050505050612304565b9950611c0e8a8d611a3b90919063ffffffff16565b9b508a806001019b5050611ad3565b611c326127108d61250e90919063ffffffff16565b9b50611c4c6008600301548d61254690919063ffffffff16565b9850611c756003611c6760028c61250e90919063ffffffff16565b61254690919063ffffffff16565b9750611c8c6127108961254690919063ffffffff16565b975087601a81905550600260040154604051908082528060200260200182016040528015611cc95781602001602082028038833980820191505090505b50965060009550600019945060009a505b6008600301548b1015611f9957611e006015600060168e815481101515611cfd57fe5b9060005260206000200160009054906101000a900473ffffffffffffffffffffffffffffffffffffffff1673ffffffffffffffffffffffffffffffffffffffff1673ffffffffffffffffffffffffffffffffffffffff1681526020019081526020016000208054600181600116156101000203166002900480601f016020809104026020016040519081016040528092919081815260200182805460018160011615610100020316600290048015611df65780601f10611dcb57610100808354040283529160200191611df6565b820191906000526020600020905b815481529060010190602001808311611dd957829003601f168201915b5050505050612304565b925082881115611e2457611e1d838961255c90919063ffffffff16565b9350611e3a565b611e37888461255c90919063ffffffff16565b93505b84841015611ee8576000955060168b815481101515611e5557fe5b9060005260206000200160009054906101000a900473ffffffffffffffffffffffffffffffffffffffff168787815181101515611e8e57fe5b9060200190602002019073ffffffffffffffffffffffffffffffffffffffff16908173ffffffffffffffffffffffffffffffffffffffff1681525050611ede600187611a3b90919063ffffffff16565b9550839450611f8c565b84841415611f8b5760168b815481101515611eff57fe5b9060005260206000200160009054906101000a900473ffffffffffffffffffffffffffffffffffffffff168787815181101515611f3857fe5b9060200190602002019073ffffffffffffffffffffffffffffffffffffffff16908173ffffffffffffffffffffffffffffffffffffffff1681525050611f88600187611a3b90919063ffffffff16565b95505b5b8a806001019b5050611cda565b611fdb6064611fcd6002600101543073ffffffffffffffffffffffffffffffffffffffff163161250e90919063ffffffff16565b61254690919063ffffffff16565b9150600260000160009054906101000a900473ffffffffffffffffffffffffffffffffffffffff1673ffffffffffffffffffffffffffffffffffffffff166108fc839081150290604051600060405180830381858888f19350505050158015612048573d6000803e3d6000fd5b5060008614156120e657600260000160009054906101000a900473ffffffffffffffffffffffffffffffffffffffff1673ffffffffffffffffffffffffffffffffffffffff166108fc3073ffffffffffffffffffffffffffffffffffffffff16319081150290604051600060405180830381858888f193505050501580156120d4573d6000803e3d6000fd5b506120e187876000612575565b61211e565b612110863073ffffffffffffffffffffffffffffffffffffffff163161254690919063ffffffff16565b905061211d878783612575565b5b505050505050505050505050565b600080600860000160006101000a81548160ff0219169083600281111561214f57fe5b02179055506000600860010181905550600860060160008154809291906001019190505550600090505b60086002015481101561220f576013600060148381548110151561219957fe5b9060005260206000200160009054906101000a900473ffffffffffffffffffffffffffffffffffffffff1673ffffffffffffffffffffffffffffffffffffffff1673ffffffffffffffffffffffffffffffffffffffff168152602001908152602001600020600090558080600101915050612179565b6000600860020181905550600060086003018190555061223f60026003015460001961255c90919063ffffffff16565b60086004018190555061226260026003015460001961255c90919063ffffffff16565b6008600501819055507fc80d42c5999c8ad689a434b47a3eecdc54fa3b27a31b49cb02b8c5075929fecc60405160405180910390a150565b6001600860000160006101000a81548160ff021916908360028111156122bc57fe5b02179055506001600860010181905550436008600501819055507f69c81b49bf12351dbabf91faefefa2b2ee324d944cd6a8b3b8416ade0232666460405160405180910390a1565b6000606060008084925060009150600090505b82518110156125035760307f010000000000000000000000000000000000000000000000000000000000000002838281518110151561235257fe5b9060200101517f010000000000000000000000000000000000000000000000000000000000000090047f0100000000000000000000000000000000000000000000000000000000000000027effffffffffffffffffffffffffffffffffffffffffffffffffffffffffffff19161015801561246a575060397f01000000000000000000000000000000000000000000000000000000000000000283828151811015156123fa57fe5b9060200101517f010000000000000000000000000000000000000000000000000000000000000090047f0100000000000000000000000000000000000000000000000000000000000000027effffffffffffffffffffffffffffffffffffffffffffffffffffffffffffff191611155b156124f6576030838281518110151561247f57fe5b9060200101517f010000000000000000000000000000000000000000000000000000000000000090047f0100000000000000000000000000000000000000000000000000000000000000027f0100000000000000000000000000000000000000000000000000000000000000900403600a83020191505b8080600101915050612317565b819350505050919050565b6000808314156125215760009050612540565b818302905081838281151561253257fe5b0414151561253c57fe5b8090505b92915050565b6000818381151561255357fe5b04905092915050565b600082821115151561256a57fe5b818303905092915050565b600082600f60010181905550600090505b828110156126e657838181518110151561259c57fe5b9060200190602002015173ffffffffffffffffffffffffffffffffffffffff166108fc839081150290604051600060405180830381858888f193505050501580156125eb573d6000803e3d6000fd5b5083818151811015156125fa57fe5b90602001906020020151600f6000018281548110151561261657fe5b9060005260206000200160006101000a81548173ffffffffffffffffffffffffffffffffffffffff021916908373ffffffffffffffffffffffffffffffffffffffff16021790555060156000858381518110151561267057fe5b9060200190602002015173ffffffffffffffffffffffffffffffffffffffff1673ffffffffffffffffffffffffffffffffffffffff168152602001908152602001600020600f60020190805460018160011615610100020316600290046126d8929190612776565b508080600101915050612586565b81600f6003018190555050505050565b828054600181600116156101000203166002900490600052602060002090601f016020900481019282601f1061273757805160ff1916838001178555612765565b82800160010185558215612765579182015b82811115612764578251825591602001919060010190612749565b5b50905061277291906127fd565b5090565b828054600181600116156101000203166002900490600052602060002090601f016020900481019282601f106127af57805485556127ec565b828001600101855582156127ec57600052602060002091601f016020900482015b828111156127eb5782548255916001019190600101906127d0565b5b5090506127f991906127fd565b5090565b61281f91905b8082111561281b576000816000905550600101612803565b5090565b905600a165627a7a72305820b95922be140f05fd339f5a658d45ffdce164ea91565de8d28106eba3475186010029",
  "source": "pragma solidity ^0.4.23;\n\nimport \"./Game.sol\";\n\ncontract TwoThirdsAverage is Game {\n    using SafeMath for uint256;\n\n    struct Rules {\n        uint256 MIN_GUESS;\n        uint256 MAX_GUESS;\n    }\n\n    Rules public rules;\n\n    //DEBUG\n    uint256 public average23 = 0;\n\n    constructor(\n        address _feeAddress,\n        uint256 _gameFeePercent,\n        uint256 _stakeSize,\n        uint256 _maxp, \n        uint256 _gameStageLength,\n        address _nptAddress) public Game(_feeAddress, _gameFeePercent, _stakeSize, _maxp, _gameStageLength, _nptAddress) {\n        rules.MIN_GUESS = 0;\n        rules.MAX_GUESS = 100;\n    }\n\n    function checkGuess(string guess) private {\n        uint256 guess_num = stringToUint(guess);\n        require(guess_num >= rules.MIN_GUESS && guess_num <= rules.MAX_GUESS);\n    }\n\n    function findWinners() private {\n\n        //emit DebugWinner(1, gameDataKeys.length);\n        \n        // Calculate the 2/3 average\n        uint256 guess_sum = 0;\n        for(uint256 i = 0; i < state.currNumberReveals; i++){\n            uint256 tmp = stringToUint(gameData[gameDataKeys[i]]);\n            guess_sum = guess_sum.add(tmp);\n        }\n\n        guess_sum = guess_sum.mul(10000);\n        uint256 average = guess_sum.div(state.currNumberReveals);\n        uint256 twothirdsavg = average.mul(2).div(3);\n        twothirdsavg = twothirdsavg.div(10000);\n\n        //DEBUG\n        average23 = twothirdsavg;\n\n        address[] memory winners = new address[](config.MAX_PLAYERS);\n        uint256 winIndex = 0;\n\n        // Find the guessers who are the closest to the 2/3 average\n        uint256 min_diff = ~uint256(0);\n        uint256 cur_diff;\n        for(i = 0; i < state.currNumberReveals; i++) {\n            \n            uint256 cur_guess = stringToUint(gameData[gameDataKeys[i]]);\n\n            // Find the difference between the guess and the average\n            if(twothirdsavg > cur_guess){\n                cur_diff = twothirdsavg.sub(cur_guess);\n            }\n            else{\n                cur_diff = cur_guess.sub(twothirdsavg);\n            }\n            \n            // If the difference is less than the smallest difference,\n            // we delete all the winners and add the new candidate\n            if(cur_diff < min_diff) {\n                \n                // NOT A BUG!\n                //delete winners; // WTF you might ask? There is no necessity to delete elements.\n                winIndex = 0;\n                winners[winIndex] = gameDataKeys[i];\n                winIndex = winIndex.add(1);\n\n                min_diff = cur_diff;\n            // Else, if the difference are the same, we add the candidate to the \n            // list of winners\n            } else if(cur_diff == min_diff){\n                winners[winIndex] = gameDataKeys[i];\n                winIndex = winIndex.add(1);\n            }\n        }\n\n        //emit DebugWinner(2, gameDataKeys.length);\n\n        // Lets pay ourselves some money\n        uint256 gamefee = (address(this).balance.mul(config.GAME_FEE_PERCENT)).div(100);\n        config.FEE_ADDRESS.transfer(gamefee);\n\n        if(winIndex == 0){\n            config.FEE_ADDRESS.transfer(address(this).balance);\n            performPayout(winners, winIndex, 0);\n        } else {\n            uint256 prize = address(this).balance.div(winIndex);\n            performPayout(winners, winIndex, prize);\n        }\n        \n    }\n\n}\n\n\n",
  "sourcePath": "/Users/gitprooriginmaster/devel/purescript-playground/contracts/TwoThirdsAverage.sol",
  "compiler": {
    "name": "solc",
    "version": "0.4.24+commit.e67f0147.Emscripten.clang"
  },
  "schemaVersion": "2.0.1",
  "updatedAt": "2018-08-06T19:39:30.142Z"
}